{
  "_format": "hh-sol-artifact-1",
  "contractName": "PlayerTokenFactory",
  "sourceName": "contracts/factory/PlayerTokenFactory.sol",
  "abi": [
    {
      "inputs": [
        {
          "internalType": "address",
          "name": "oracle_",
          "type": "address"
        },
        {
          "internalType": "address",
          "name": "market_",
          "type": "address"
        },
        {
          "internalType": "address",
          "name": "initialOwner_",
          "type": "address"
        }
      ],
      "stateMutability": "nonpayable",
      "type": "constructor"
    },
    {
      "inputs": [
        {
          "internalType": "address",
          "name": "owner",
          "type": "address"
        }
      ],
      "name": "OwnableInvalidOwner",
      "type": "error"
    },
    {
      "inputs": [
        {
          "internalType": "address",
          "name": "account",
          "type": "address"
        }
      ],
      "name": "OwnableUnauthorizedAccount",
      "type": "error"
    },
    {
      "anonymous": false,
      "inputs": [
        {
          "indexed": true,
          "internalType": "address",
          "name": "previousOwner",
          "type": "address"
        },
        {
          "indexed": true,
          "internalType": "address",
          "name": "newOwner",
          "type": "address"
        }
      ],
      "name": "OwnershipTransferred",
      "type": "event"
    },
    {
      "anonymous": false,
      "inputs": [
        {
          "indexed": true,
          "internalType": "uint8",
          "name": "playerId",
          "type": "uint8"
        },
        {
          "indexed": true,
          "internalType": "address",
          "name": "tokenAddress",
          "type": "address"
        },
        {
          "indexed": false,
          "internalType": "string",
          "name": "name",
          "type": "string"
        },
        {
          "indexed": false,
          "internalType": "string",
          "name": "symbol",
          "type": "string"
        },
        {
          "indexed": false,
          "internalType": "uint8",
          "name": "tier",
          "type": "uint8"
        }
      ],
      "name": "PlayerDeployed",
      "type": "event"
    },
    {
      "inputs": [
        {
          "components": [
            {
              "internalType": "uint8",
              "name": "id",
              "type": "uint8"
            },
            {
              "internalType": "string",
              "name": "name",
              "type": "string"
            },
            {
              "internalType": "string",
              "name": "symbol",
              "type": "string"
            },
            {
              "internalType": "uint8",
              "name": "tier",
              "type": "uint8"
            }
          ],
          "internalType": "struct PlayerTokenFactory.PlayerData",
          "name": "player",
          "type": "tuple"
        }
      ],
      "name": "addPlayer",
      "outputs": [],
      "stateMutability": "nonpayable",
      "type": "function"
    },
    {
      "inputs": [
        {
          "internalType": "uint256",
          "name": "",
          "type": "uint256"
        }
      ],
      "name": "allPlayerIds",
      "outputs": [
        {
          "internalType": "uint8",
          "name": "",
          "type": "uint8"
        }
      ],
      "stateMutability": "view",
      "type": "function"
    },
    {
      "inputs": [
        {
          "components": [
            {
              "internalType": "uint8",
              "name": "id",
              "type": "uint8"
            },
            {
              "internalType": "string",
              "name": "name",
              "type": "string"
            },
            {
              "internalType": "string",
              "name": "symbol",
              "type": "string"
            },
            {
              "internalType": "uint8",
              "name": "tier",
              "type": "uint8"
            }
          ],
          "internalType": "struct PlayerTokenFactory.PlayerData[]",
          "name": "players",
          "type": "tuple[]"
        }
      ],
      "name": "deployAllPlayers",
      "outputs": [],
      "stateMutability": "nonpayable",
      "type": "function"
    },
    {
      "inputs": [
        {
          "components": [
            {
              "internalType": "uint8",
              "name": "id",
              "type": "uint8"
            },
            {
              "internalType": "string",
              "name": "name",
              "type": "string"
            },
            {
              "internalType": "string",
              "name": "symbol",
              "type": "string"
            },
            {
              "internalType": "uint8",
              "name": "tier",
              "type": "uint8"
            }
          ],
          "internalType": "struct PlayerTokenFactory.PlayerData[]",
          "name": "players",
          "type": "tuple[]"
        },
        {
          "internalType": "uint256",
          "name": "start",
          "type": "uint256"
        },
        {
          "internalType": "uint256",
          "name": "end",
          "type": "uint256"
        }
      ],
      "name": "deployBatch",
      "outputs": [],
      "stateMutability": "nonpayable",
      "type": "function"
    },
    {
      "inputs": [],
      "name": "getAllPlayerIds",
      "outputs": [
        {
          "internalType": "uint8[]",
          "name": "",
          "type": "uint8[]"
        }
      ],
      "stateMutability": "view",
      "type": "function"
    },
    {
      "inputs": [],
      "name": "getAllTokenAddresses",
      "outputs": [
        {
          "internalType": "address[]",
          "name": "",
          "type": "address[]"
        }
      ],
      "stateMutability": "view",
      "type": "function"
    },
    {
      "inputs": [
        {
          "internalType": "uint8",
          "name": "playerId_",
          "type": "uint8"
        }
      ],
      "name": "getPlayerToken",
      "outputs": [
        {
          "internalType": "address",
          "name": "",
          "type": "address"
        }
      ],
      "stateMutability": "view",
      "type": "function"
    },
    {
      "inputs": [],
      "name": "marketAddress",
      "outputs": [
        {
          "internalType": "address",
          "name": "",
          "type": "address"
        }
      ],
      "stateMutability": "view",
      "type": "function"
    },
    {
      "inputs": [],
      "name": "oracleAddress",
      "outputs": [
        {
          "internalType": "address",
          "name": "",
          "type": "address"
        }
      ],
      "stateMutability": "view",
      "type": "function"
    },
    {
      "inputs": [],
      "name": "owner",
      "outputs": [
        {
          "internalType": "address",
          "name": "",
          "type": "address"
        }
      ],
      "stateMutability": "view",
      "type": "function"
    },
    {
      "inputs": [
        {
          "internalType": "uint8",
          "name": "",
          "type": "uint8"
        }
      ],
      "name": "playerTokens",
      "outputs": [
        {
          "internalType": "address",
          "name": "",
          "type": "address"
        }
      ],
      "stateMutability": "view",
      "type": "function"
    },
    {
      "inputs": [],
      "name": "renounceOwnership",
      "outputs": [],
      "stateMutability": "nonpayable",
      "type": "function"
    },
    {
      "inputs": [
        {
          "internalType": "address",
          "name": "market_",
          "type": "address"
        }
      ],
      "name": "setMarket",
      "outputs": [],
      "stateMutability": "nonpayable",
      "type": "function"
    },
    {
      "inputs": [
        {
          "internalType": "address",
          "name": "oracle_",
          "type": "address"
        }
      ],
      "name": "setOracle",
      "outputs": [],
      "stateMutability": "nonpayable",
      "type": "function"
    },
    {
      "inputs": [],
      "name": "totalDeployed",
      "outputs": [
        {
          "internalType": "uint256",
          "name": "",
          "type": "uint256"
        }
      ],
      "stateMutability": "view",
      "type": "function"
    },
    {
      "inputs": [
        {
          "internalType": "address",
          "name": "newOwner",
          "type": "address"
        }
      ],
      "name": "transferOwnership",
      "outputs": [],
      "stateMutability": "nonpayable",
      "type": "function"
    }
  ],
  "bytecode": "0x60803461015e57601f6200271338819003918201601f191683019291906001600160401b0384118385101761016257816060928492604096875283398101031261015e5761004c81610176565b908261005a60208301610176565b916001600160a01b039182916100709101610176565b1691821561014757815f549460018060a01b03199480868816175f5582885197167f8be0079c531659141344cd1fd0a4f28419497f9722a3daafe3b4186f6b6457e05f80a3169384156101175750169182156100e55781600354161760035560045416176004555161258890816200018b8239f35b835162461bcd60e51b815260206004820152600b60248201526a16995c9bc81b585c9ad95d60aa1b6044820152606490fd5b62461bcd60e51b815260206004820152600b60248201526a5a65726f206f7261636c6560a81b6044820152606490fd5b8451631e4fbdf760e01b81525f6004820152602490fd5b5f80fd5b634e487b7160e01b5f52604160045260245ffd5b51906001600160a01b038216820361015e5756fe608060408181526004918236101562000016575f80fd5b60e05f3560e01c9182630cfb14b01462000c6c575081631991f301146200086357816319ba32861462000c055781634cdb320e1462000afa5781636d4ae68014620009f75781636dcea85f14620009a6578163715018a6146200094b5781637adbf97314620008f55781638da5cb5b14620008cc5781639562364114620008a2578163a877fc1e1462000863578163a89ae4ba1462000839578163cae21b7b14620007f9578163d800055414620007ac578163ee464b921462000176575063f2fde38b14620000e3575f80fd5b346200017257602036600319011262000172576001600160a01b0382358181169391929084900362000172576200011962000dbd565b83156200015c5750505f54826001600160601b0360a01b8216175f55167f8be0079c531659141344cd1fd0a4f28419497f9722a3daafe3b4186f6b6457e05f80a3005b905f6024925191631e4fbdf760e01b8352820152fd5b5f80fd5b90503462000172575f366003190112620001725781518060025480825282602080809401809660025f527f405787fa12a823e0f2b7631cc41b3ba8828b3321ca811111fa75cd3aa3bb5ace945f915b81601f8401106200061d5750620003099554918482821062000609575b828210620005f2575b828210620005db575b828210620005c4575b828210620005ae575b82821062000597575b82821062000580575b82821062000569575b8b83831062000552575b508282106200053b575b82821062000524575b8282106200050d575b828210620004f6575b828210620004df575b828210620004c8575b828210620004b1575b8282106200049a575b82821062000483575b8282106200046c575b82821062000455575b8282106200043e575b82821062000427575b82821062000410575b828210620003f9575b828210620003e2575b828210620003cb575b828210620003b4575b8282106200039d575b82821062000386575b8282106200036f575b82821062000358575b501062000349575b50905095949395038562000d31565b825181815293518185018190528493840192915f5b8281106200032e57505050500390f35b835160ff16855286955093810193928101926001016200031e565b60f81c815201839088620002fa565b6001919460ff8560f01c16815201930184620002f2565b6001919460ff8560e81c16815201930184620002e9565b6001919460ff8560e01c16815201930184620002e0565b6001919460ff8560d81c16815201930184620002d7565b6001919460ff8560d01c16815201930184620002ce565b6001919460ff8560c81c16815201930184620002c5565b6001919460ff8560c01c16815201930184620002bc565b6001919460ff8560b81c16815201930184620002b3565b6001919460ff8560b01c16815201930184620002aa565b6001919460ff8560a81c16815201930184620002a1565b6001919460ff8560a01c1681520193018462000298565b6001919460ff8560981c168152019301846200028f565b6001919460ff8560901c1681520193018462000286565b6001919460ff8560881c168152019301846200027d565b6001919460ff8560801c1681520193018462000274565b6001919460ff8560781c168152019301846200026b565b6001919460ff8560701c1681520193018462000262565b6001919460ff8560681c1681520193018462000259565b6001919460ff8560601c1681520193018462000250565b6001919460ff8560581c1681520193018462000247565b6001919460ff8560501c168152019301846200023e565b6001919460ff8560481c1681520193018462000235565b9460ff85600194971c168152019301848b6200022b565b6001919460ff8560381c1681520193018462000221565b6001919460ff8560301c1681520193018462000218565b6001919460ff8560281c168152019301846200020f565b6001919460ff85831c1681520193018462000206565b6001919460ff8560181c16815201930184620001fd565b6001919460ff8560101c16815201930184620001f4565b6001919460ff8560081c16815201930184620001eb565b6001919460ff8516815201930184620001e2565b94509290916104006001918754808d818a60ff82819594828096168952828260081c168c8a0152828260101c16818a015282828d82828d606090838360181c168282015283836080961c1685820152838360a099828260281c168b85015260c09d8e848460301c1690860152838360381c16908501521c16610100820152838360481c16610120820152838360501c16610140820152610160848460581c169101521c166101808d0152828260681c166101a08d0152828260701c166101c08d0152828260781c166101e08d01521c166102008a0152828260881c166102208a0152828260901c166102408a0152828260981c166102608a01521c16610280870152828260a81c166102a0870152828260b01c166102c0870152828260b81c166102e08701521c16610300840152808260c81c16610320840152808260d01c16610340840152808260d81c1661036084015280828a1c16610380840152808260e81c166103a08401528160f01c166103c083015260f81c6103e0820152019501910185928794959295620001c5565b83346200017257600319602036820112620001725781359067ffffffffffffffff8211620001725760809082360301126200017257620007f791620007f062000dbd565b0162000e4e565b005b8284346200017257602036600319011262000172573590600254821015620001725760ff6200082a60209362000cbc565b92905490519260031b1c168152f35b823462000172575f366003190112620001725760035490516001600160a01b039091168152602090f35b828434620001725760203660031901126200017257359060ff821680920362000172576020915f526001825260018060a01b03815f2054169051908152f35b50503462000172575f3660031901126200017257905490516001600160a01b039091168152602090f35b823462000172575f36600319011262000172575f5490516001600160a01b039091168152602090f35b8334620001725760203660031901126200017257356001600160a01b0381169081900362000172576200092762000dbd565b6200093481151562000d81565b6001600160601b0360a01b60035416176003555f80f35b3462000172575f36600319011262000172576200096762000dbd565b5f80546001600160a01b0319811682556001600160a01b03167f8be0079c531659141344cd1fd0a4f28419497f9722a3daafe3b4186f6b6457e08280a3005b833462000172576020366003190112620001725780356001600160a01b038116908190036200017257620009d962000dbd565b620009e681151562000d81565b81546001600160a01b031916179055005b82843462000172575f3660031901126200017257906002549162000a1b8362000d68565b9262000a2a8351948562000d31565b80845262000a388162000d68565b9160209182860193601f19013685375f5b81811062000a9b5750505082519384938285019183865251809252840192915f5b82811062000a7a57505050500390f35b83516001600160a01b03168552869550938101939281019260010162000a6a565b60ff62000aac829896979862000cbc565b90549060031b1c165f526001845260018060a01b03875f205416855182101562000ae757600582901b86018501529395949360010162000a49565b603284634e487b7160e01b5f525260245ffd5b505034620001725760603660031901126200017257813567ffffffffffffffff8111620001725762000b30903690840162000c88565b92906024936024356044359462000b4662000dbd565b8286101562000bcf5785821162000b9f57505b8481111562000b6457005b62000b7b62000b7582848662000d0d565b62000e4e565b5f19811462000b8d5760010162000b59565b85601185634e487b7160e01b5f52525ffd5b5162461bcd60e51b8152602081860152600b60248201526a1cdd185c9d080f88195b9960aa1b6044820152606490fd5b5162461bcd60e51b81526020818601526011602482015270656e64206f7574206f6620626f756e647360781b6044820152606490fd5b833462000172576020366003190112620001725780359067ffffffffffffffff8211620001725762000c3a9136910162000c88565b9062000c4562000dbd565b5f5b82811062000c5157005b8062000c6562000b75600193868662000d0d565b0162000c47565b3462000172575f36600319011262000172576020906002548152f35b9181601f84011215620001725782359167ffffffffffffffff831162000172576020808501948460051b0101116200017257565b9060025482101562000cf95760025f52601f8260051c7f405787fa12a823e0f2b7631cc41b3ba8828b3321ca811111fa75cd3aa3bb5ace01921690565b634e487b7160e01b5f52603260045260245ffd5b919081101562000cf95760051b81013590607e198136030182121562000172570190565b90601f8019910116810190811067ffffffffffffffff82111762000d5457604052565b634e487b7160e01b5f52604160045260245ffd5b67ffffffffffffffff811162000d545760051b60200190565b1562000d8957565b60405162461bcd60e51b815260206004820152600c60248201526b5a65726f206164647265737360a01b6044820152606490fd5b5f546001600160a01b0316330362000dd157565b60405163118cdaa760e01b8152336004820152602490fd5b3560ff81168103620001725790565b903590601e198136030182121562000172570180359067ffffffffffffffff821162000172576020019181360383136200017257565b908060209392818452848401375f828201840152601f01601f1916010190565b60ff62000e5b8262000de9565b165f908152600160205260409020546001600160a01b0316620012225762000e87602082018262000df8565b905015620011f057600462000ea0604083018362000df8565b905003620011b257600260ff62000eba6060840162000de9565b16116200117e5762000ed0602082018262000df8565b62000edf604084018462000df8565b909162000eef6060860162000de9565b9162000efb8662000de9565b6003546004545f54604051986001600160a01b0391821696928216959390911693919067ffffffffffffffff6112eb8b01908111908b111762000d5457899860ff9462000f6362000f7a93879560e08e6112eb6200126882396112eb01818152019162000e2e565b916112eb8c01830360208d6112eb01015262000e2e565b961660406112eb890101521660606112eb8701015260806112eb8601015260a06112eb8501015260c06112eb8401015203905ff0801562001173576001600160a01b03169060ff62000fcc8262000de9565b165f52600160205260405f20826001600160601b0360a01b82541617905562000ff58162000de9565b6002546801000000000000000081101562000d54578060016200101c920160025562000cbc565b60ff80839493549260031b9316831b921b191617905560018060a01b0360045416620010488262000de9565b90620010576060840162000de9565b91813b156200017257606460ff915f8094846040519788968795635b8a1cdd60e01b87528c60048801521660248601521660448401525af18015620011735762001139575b507ff7136623497749a4551c9244eadf7b9b303b47ef18f011830cca3a59ce88a1f8816200112b60ff620010d260609562000de9565b81620010e2602086018662000df8565b94909562001102620010f8604083018362000df8565b9a90920162000de9565b986200111c60405198899860608a5260608a019162000e2e565b91878303602089015262000e2e565b9616604084015216930390a3565b67ffffffffffffffff811162000d54576040527ff7136623497749a4551c9244eadf7b9b303b47ef18f011830cca3a59ce88a1f86200109c565b6040513d5f823e3d90fd5b60405162461bcd60e51b815260206004820152600c60248201526b24b73b30b634b2103a34b2b960a11b6044820152606490fd5b60405162461bcd60e51b815260206004820152601660248201527553796d626f6c206d757374206265203420636861727360501b6044820152606490fd5b60405162461bcd60e51b815260206004820152600a602482015269456d707479206e616d6560b01b6044820152606490fd5b60405162461bcd60e51b815260206004820152601760248201527f506c6179657220616c7265616479206465706c6f7965640000000000000000006044820152606490fdfe604060c0815234620004b457620012eb803803806200001e81620004b8565b928339810160e082820312620004b45781516001600160401b0390818111620004b457826200004f918501620004de565b6020928385015190838211620004b4576200006c918601620004de565b916200007a8686016200054e565b9462000089606082016200054e565b62000097608083016200055d565b90620000b460c0620000ac60a086016200055d565b94016200055d565b938551818111620003b0576003908154906001988983811c93168015620004a9575b8c841014620004955781908c601f948581116200043f575b50508c90848311600114620003d0575f92620003c4575b50505f1982851b1c191690891b1782555b8851928311620003b05760049889548981811c91168015620003a5575b8c8210146200039257908b8284879695941162000338575b50508b918411600114620002cf575f93620002c3575b505082881b925f19911b1c19161786555b6001600160a01b03938416978815620002ad57908492916005549660018060a01b03199a808c8a1617600555858d5199167f8be0079c531659141344cd1fd0a4f28419497f9722a3daafe3b4186f6b6457e05f80a37f9b779b17422d0df92223018b32b4d1fa46e071723d6817e2486d003becc55f0055606460085560805260a05216866006541617600655168094600754161760075583156200029a575060025468056bc75e2d63100000918282018092116200028757506002555f8381528083528481208054830190558451918252917fddf252ad1be2c89b69c2b068fc378daa952ba7f163c4a11628f55a4df523b3ef91a351610d789081620005738239608051816109ab015260a051816105ba0152f35b601190634e487b7160e01b5f525260245ffd5b5f60249263ec442f0560e01b8352820152fd5b8951631e4fbdf760e01b81525f81890152602490fd5b015191505f8062000161565b5f8b81528c81208b965093929190601f198616908e5b82821062000320575050851162000306575b50505050811b01865562000172565b01519060f8845f19921b161c191690555f808080620002f7565b8385015187558d989096019593840193018e620002e5565b9091929394508b5f5283825f209181880160051c830193881062000388575b918c918897969594930160051c01915b8281106200037957508d91506200014b565b5f81558796508c910162000367565b9250819262000357565b60228b634e487b7160e01b5f525260245ffd5b90607f169062000133565b634e487b7160e01b5f52604160045260245ffd5b015190505f8062000105565b8b9350908d91601f198416875f52835f20935f905b8282106200041d575050841162000405575b505050811b01825562000116565b01515f1983871b60f8161c191690555f8080620003f7565b91929395968291958786015181550195019301908f918e9695949392620003e5565b90919250855f5284825f209181860160051c83019386106200048b575b918d91869594930160051c01915b8281106200047c57508e9150620000ee565b5f81558594508d91016200046a565b925081926200045c565b634e487b7160e01b5f52602260045260245ffd5b92607f1692620000d6565b5f80fd5b6040519190601f01601f191682016001600160401b03811183821017620003b057604052565b919080601f84011215620004b45782516001600160401b038111620003b05760209062000514601f8201601f19168301620004b8565b92818452828287010111620004b4575f5b8181106200053a5750825f9394955001015290565b858101830151848201840152820162000525565b519060ff82168203620004b457565b51906001600160a01b0382168203620004b45756fe608060409080825260049081361015610016575f80fd5b5f3560e01c90816306fdde0314610a7857508063095ea7b3146109cf57806316f4d0221461099257806318160ddd146109745780631eb42c281461093d57806323b872dd1461084c578063269855f8146106b2578063313ce567146106975780635676cace1461036c5780635e22a611146106605780636dcea85f1461061457806370a08231146105de578063713c0e1a146105a1578063715018a6146105465780637adbf973146104fa5780638da5cb5b146104d257806395623641146104aa57806395d89b411461038a578063a485b7861461036c578063a89ae4ba14610344578063a9059cbb14610314578063bad60f181461023f578063c76d580c14610208578063dd62ed3e146101bf5763f2fde38b14610133575f80fd5b346101bb5760203660031901126101bb5761014c610bb5565b90610155610cf6565b6001600160a01b039182169283156101a5575050600554826001600160601b0360a01b821617600555167f8be0079c531659141344cd1fd0a4f28419497f9722a3daafe3b4186f6b6457e05f80a3005b905f6024925191631e4fbdf760e01b8352820152fd5b5f80fd5b82346101bb57806003193601126101bb576020906101db610bb5565b6101e3610bcb565b9060018060a01b038091165f5260018452825f2091165f528252805f20549051908152f35b82346101bb5760203660031901126101bb576020906001600160a01b0361022d610bb5565b165f52600a8252805f20549051908152f35b5090346101bb57806003193601126101bb57600654823592906001600160a01b031633036102e55782156102ae575060607f0de1269906fcaa631bbf70b295a7d636351c0e9f4fb7825498bdda2ff94ff4949160085490805191825284602083015260243590820152a1600855005b6020606492519162461bcd60e51b8352820152601260248201527124b73b30b634b21036bab63a34b83634b2b960711b6044820152fd5b6020606492519162461bcd60e51b8352820152600a6024820152694e6f74206f7261636c6560b01b6044820152fd5b82346101bb57806003193601126101bb5760209061033d610333610bb5565b6024359033610c1c565b5160018152f35b82346101bb575f3660031901126101bb5760065490516001600160a01b039091168152602090f35b82346101bb575f3660031901126101bb576020906008549051908152f35b5090346101bb575f3660031901126101bb578051905f835460018160011c90600183169283156104a0575b602093848410811461048d57838852908115610471575060011461041d575b505050829003601f01601f191682019267ffffffffffffffff84118385101761040a5750829182610406925282610b6e565b0390f35b604190634e487b7160e01b5f525260245ffd5b5f878152929350837f8a35acfbc15ff81a39ae7d344fd709f28e8600b4aa8c65c6b64bfe7fe36bd19b5b83851061045d57505050508301015f80806103d4565b805488860183015293019284908201610447565b60ff1916878501525050151560051b84010190505f80806103d4565b602289634e487b7160e01b5f525260245ffd5b91607f16916103b5565b82346101bb575f3660031901126101bb5760075490516001600160a01b039091168152602090f35b82346101bb575f3660031901126101bb5760055490516001600160a01b039091168152602090f35b346101bb5760203660031901126101bb57610513610bb5565b61051b610cf6565b6001600160a01b031661052f811515610be1565b6001600160601b0360a01b60065416176006555f80f35b346101bb575f3660031901126101bb5761055e610cf6565b600580546001600160a01b031981169091555f906001600160a01b03167f8be0079c531659141344cd1fd0a4f28419497f9722a3daafe3b4186f6b6457e08280a3005b82346101bb575f3660031901126101bb576020905160ff7f0000000000000000000000000000000000000000000000000000000000000000168152f35b82346101bb5760203660031901126101bb576020906001600160a01b03610603610bb5565b165f525f8252805f20549051908152f35b346101bb5760203660031901126101bb5761062d610bb5565b610635610cf6565b6001600160a01b0316610649811515610be1565b6001600160601b0360a01b60075416176007555f80f35b82346101bb5760203660031901126101bb576020906001600160a01b03610685610bb5565b165f5260098252805f20549051908152f35b82346101bb575f3660031901126101bb576020905160128152f35b5090346101bb576020806003193601126101bb576106ce610bb5565b6007546001600160a01b0391908216330361081c571690815f52600a8152825f20546201518080420490820491155f1461076b575050815f52600981526001835f2055600b8152825f2080549060018201809211610758575f80516020610d238339815191529550555b815f52600a815242835f205560098152825f2054908351928352820152a1005b601186634e487b7160e01b5f525260245ffd5b81810361078a575b50505f80516020610d238339815191529350610738565b6001820180921161075857036107e457815f5260098152825f20805490600182018092116107585755815f52600b8152825f2080549060018201809211610758575f80516020610d238339815191529550555b5f80610773565b815f52600981526001835f2055600b8152825f2080549060018201809211610758575f80516020610d238339815191529550556107dd565b835162461bcd60e51b8152808601849052600a602482015269139bdd081b585c9ad95d60b21b6044820152606490fd5b50346101bb5760603660031901126101bb57610866610bb5565b61086e610bcb565b906044359260018060a01b038216805f526001602052855f20335f52602052855f2054915f1983106108a9575b60208761033d888888610c1c565b8583106109115781156108fb5733156108e557505f9081526001602090815286822033835281529086902091859003909155829061033d61089b565b6024905f885191634a1406b160e11b8352820152fd5b6024905f88519163e602df0560e01b8352820152fd5b8651637dc7a0d960e11b8152339181019182526020820193909352604081018690528291506060010390fd5b82346101bb5760203660031901126101bb576020906001600160a01b03610962610bb5565b165f52600b8252805f20549051908152f35b82346101bb575f3660031901126101bb576020906002549051908152f35b82346101bb575f3660031901126101bb576020905160ff7f0000000000000000000000000000000000000000000000000000000000000000168152f35b5090346101bb57806003193601126101bb576109e9610bb5565b602435903315610a62576001600160a01b0316908115610a4c5760209350335f5260018452825f20825f52845280835f205582519081527f8c5be1e5ebec7d5bd14f71427d1e84f3dd0314c0f7b2291e5b200ac8c7c3b925843392a35160018152f35b8251634a1406b160e11b81525f81860152602490fd5b825163e602df0560e01b81525f81860152602490fd5b905082346101bb575f3660031901126101bb575f60035460018160011c9060018316928315610b64575b602093848410811461048d57838852908115610b485750600114610af257505050829003601f01601f191682019267ffffffffffffffff84118385101761040a5750829182610406925282610b6e565b60035f908152929350837fc2575a0e9e593c00f959f8c92f12db2869c3395a3b0502d05e2516446f71f85b5b838510610b3457505050508301018480806103d4565b805488860183015293019284908201610b1e565b60ff1916878501525050151560051b84010190508480806103d4565b91607f1691610aa2565b602080825282518183018190529093925f5b828110610ba157505060409293505f838284010152601f8019910116010190565b818101860151848201604001528501610b80565b600435906001600160a01b03821682036101bb57565b602435906001600160a01b03821682036101bb57565b15610be857565b60405162461bcd60e51b815260206004820152600c60248201526b5a65726f206164647265737360a01b6044820152606490fd5b916001600160a01b03808416928315610cde5716928315610cc657825f525f60205260405f205490828210610c945750817fddf252ad1be2c89b69c2b068fc378daa952ba7f163c4a11628f55a4df523b3ef92602092855f525f84520360405f2055845f5260405f20818154019055604051908152a3565b60405163391434e360e21b81526001600160a01b03919091166004820152602481019190915260448101829052606490fd5b60405163ec442f0560e01b81525f6004820152602490fd5b604051634b637e8f60e11b81525f6004820152602490fd5b6005546001600160a01b03163303610d0a57565b60405163118cdaa760e01b8152336004820152602490fdfe46f6fe577ecfefe55b0f14f0b42ddb4c22db1fb9bade43aa02c5ef4e5439512ea26469706673582212209aa7c13b183c8bea0a38e045bf49efc9f0bf252b5d64beab7572276f2533e3d164736f6c63430008180033a264697066735822122019cfe40a785cf0743c1120f27e6b99b48868d0126305388cbe364c567dfcd21364736f6c63430008180033",
  "linkReferences": {},
  "deployedLinkReferences": {}
}