{
  "_format": "hh-sol-artifact-1",
  "contractName": "ChampionNFT",
  "sourceName": "contracts/nft/ChampionNFT.sol",
  "abi": [
    {
      "inputs": [
        {
          "internalType": "address",
          "name": "initialOwner_",
          "type": "address"
        }
      ],
      "stateMutability": "nonpayable",
      "type": "constructor"
    },
    {
      "inputs": [
        {
          "internalType": "address",
          "name": "sender",
          "type": "address"
        },
        {
          "internalType": "uint256",
          "name": "tokenId",
          "type": "uint256"
        },
        {
          "internalType": "address",
          "name": "owner",
          "type": "address"
        }
      ],
      "name": "ERC721IncorrectOwner",
      "type": "error"
    },
    {
      "inputs": [
        {
          "internalType": "address",
          "name": "operator",
          "type": "address"
        },
        {
          "internalType": "uint256",
          "name": "tokenId",
          "type": "uint256"
        }
      ],
      "name": "ERC721InsufficientApproval",
      "type": "error"
    },
    {
      "inputs": [
        {
          "internalType": "address",
          "name": "approver",
          "type": "address"
        }
      ],
      "name": "ERC721InvalidApprover",
      "type": "error"
    },
    {
      "inputs": [
        {
          "internalType": "address",
          "name": "operator",
          "type": "address"
        }
      ],
      "name": "ERC721InvalidOperator",
      "type": "error"
    },
    {
      "inputs": [
        {
          "internalType": "address",
          "name": "owner",
          "type": "address"
        }
      ],
      "name": "ERC721InvalidOwner",
      "type": "error"
    },
    {
      "inputs": [
        {
          "internalType": "address",
          "name": "receiver",
          "type": "address"
        }
      ],
      "name": "ERC721InvalidReceiver",
      "type": "error"
    },
    {
      "inputs": [
        {
          "internalType": "address",
          "name": "sender",
          "type": "address"
        }
      ],
      "name": "ERC721InvalidSender",
      "type": "error"
    },
    {
      "inputs": [
        {
          "internalType": "uint256",
          "name": "tokenId",
          "type": "uint256"
        }
      ],
      "name": "ERC721NonexistentToken",
      "type": "error"
    },
    {
      "inputs": [
        {
          "internalType": "address",
          "name": "owner",
          "type": "address"
        }
      ],
      "name": "OwnableInvalidOwner",
      "type": "error"
    },
    {
      "inputs": [
        {
          "internalType": "address",
          "name": "account",
          "type": "address"
        }
      ],
      "name": "OwnableUnauthorizedAccount",
      "type": "error"
    },
    {
      "anonymous": false,
      "inputs": [
        {
          "indexed": true,
          "internalType": "address",
          "name": "to",
          "type": "address"
        },
        {
          "indexed": false,
          "internalType": "string",
          "name": "achievementType",
          "type": "string"
        },
        {
          "indexed": false,
          "internalType": "uint8",
          "name": "season",
          "type": "uint8"
        },
        {
          "indexed": false,
          "internalType": "uint256",
          "name": "tokenId",
          "type": "uint256"
        }
      ],
      "name": "AchievementMinted",
      "type": "event"
    },
    {
      "anonymous": false,
      "inputs": [
        {
          "indexed": true,
          "internalType": "address",
          "name": "owner",
          "type": "address"
        },
        {
          "indexed": true,
          "internalType": "address",
          "name": "approved",
          "type": "address"
        },
        {
          "indexed": true,
          "internalType": "uint256",
          "name": "tokenId",
          "type": "uint256"
        }
      ],
      "name": "Approval",
      "type": "event"
    },
    {
      "anonymous": false,
      "inputs": [
        {
          "indexed": true,
          "internalType": "address",
          "name": "owner",
          "type": "address"
        },
        {
          "indexed": true,
          "internalType": "address",
          "name": "operator",
          "type": "address"
        },
        {
          "indexed": false,
          "internalType": "bool",
          "name": "approved",
          "type": "bool"
        }
      ],
      "name": "ApprovalForAll",
      "type": "event"
    },
    {
      "anonymous": false,
      "inputs": [
        {
          "indexed": true,
          "internalType": "address",
          "name": "previousOwner",
          "type": "address"
        },
        {
          "indexed": true,
          "internalType": "address",
          "name": "newOwner",
          "type": "address"
        }
      ],
      "name": "OwnershipTransferred",
      "type": "event"
    },
    {
      "anonymous": false,
      "inputs": [
        {
          "indexed": true,
          "internalType": "address",
          "name": "from",
          "type": "address"
        },
        {
          "indexed": true,
          "internalType": "address",
          "name": "to",
          "type": "address"
        },
        {
          "indexed": true,
          "internalType": "uint256",
          "name": "tokenId",
          "type": "uint256"
        }
      ],
      "name": "Transfer",
      "type": "event"
    },
    {
      "inputs": [
        {
          "internalType": "uint256",
          "name": "",
          "type": "uint256"
        }
      ],
      "name": "achievements",
      "outputs": [
        {
          "internalType": "string",
          "name": "achievementType",
          "type": "string"
        },
        {
          "internalType": "uint8",
          "name": "season",
          "type": "uint8"
        },
        {
          "internalType": "uint256",
          "name": "timestamp",
          "type": "uint256"
        },
        {
          "internalType": "address",
          "name": "wallet",
          "type": "address"
        }
      ],
      "stateMutability": "view",
      "type": "function"
    },
    {
      "inputs": [
        {
          "internalType": "address",
          "name": "to",
          "type": "address"
        },
        {
          "internalType": "uint256",
          "name": "tokenId",
          "type": "uint256"
        }
      ],
      "name": "approve",
      "outputs": [],
      "stateMutability": "nonpayable",
      "type": "function"
    },
    {
      "inputs": [
        {
          "internalType": "address",
          "name": "owner",
          "type": "address"
        }
      ],
      "name": "balanceOf",
      "outputs": [
        {
          "internalType": "uint256",
          "name": "",
          "type": "uint256"
        }
      ],
      "stateMutability": "view",
      "type": "function"
    },
    {
      "inputs": [
        {
          "internalType": "address",
          "name": "wallet",
          "type": "address"
        }
      ],
      "name": "getAchievementsByWallet",
      "outputs": [
        {
          "internalType": "string[]",
          "name": "",
          "type": "string[]"
        }
      ],
      "stateMutability": "view",
      "type": "function"
    },
    {
      "inputs": [
        {
          "internalType": "uint256",
          "name": "tokenId",
          "type": "uint256"
        }
      ],
      "name": "getApproved",
      "outputs": [
        {
          "internalType": "address",
          "name": "",
          "type": "address"
        }
      ],
      "stateMutability": "view",
      "type": "function"
    },
    {
      "inputs": [
        {
          "internalType": "address",
          "name": "",
          "type": "address"
        },
        {
          "internalType": "string",
          "name": "",
          "type": "string"
        }
      ],
      "name": "hasAchievement",
      "outputs": [
        {
          "internalType": "bool",
          "name": "",
          "type": "bool"
        }
      ],
      "stateMutability": "view",
      "type": "function"
    },
    {
      "inputs": [
        {
          "internalType": "address",
          "name": "owner",
          "type": "address"
        },
        {
          "internalType": "address",
          "name": "operator",
          "type": "address"
        }
      ],
      "name": "isApprovedForAll",
      "outputs": [
        {
          "internalType": "bool",
          "name": "",
          "type": "bool"
        }
      ],
      "stateMutability": "view",
      "type": "function"
    },
    {
      "inputs": [
        {
          "internalType": "address",
          "name": "to",
          "type": "address"
        },
        {
          "internalType": "string",
          "name": "achievementType",
          "type": "string"
        },
        {
          "internalType": "uint8",
          "name": "season",
          "type": "uint8"
        }
      ],
      "name": "mintAchievement",
      "outputs": [],
      "stateMutability": "nonpayable",
      "type": "function"
    },
    {
      "inputs": [],
      "name": "name",
      "outputs": [
        {
          "internalType": "string",
          "name": "",
          "type": "string"
        }
      ],
      "stateMutability": "view",
      "type": "function"
    },
    {
      "inputs": [],
      "name": "nextTokenId",
      "outputs": [
        {
          "internalType": "uint256",
          "name": "",
          "type": "uint256"
        }
      ],
      "stateMutability": "view",
      "type": "function"
    },
    {
      "inputs": [],
      "name": "owner",
      "outputs": [
        {
          "internalType": "address",
          "name": "",
          "type": "address"
        }
      ],
      "stateMutability": "view",
      "type": "function"
    },
    {
      "inputs": [
        {
          "internalType": "uint256",
          "name": "tokenId",
          "type": "uint256"
        }
      ],
      "name": "ownerOf",
      "outputs": [
        {
          "internalType": "address",
          "name": "",
          "type": "address"
        }
      ],
      "stateMutability": "view",
      "type": "function"
    },
    {
      "inputs": [],
      "name": "renounceOwnership",
      "outputs": [],
      "stateMutability": "nonpayable",
      "type": "function"
    },
    {
      "inputs": [
        {
          "internalType": "address",
          "name": "from",
          "type": "address"
        },
        {
          "internalType": "address",
          "name": "to",
          "type": "address"
        },
        {
          "internalType": "uint256",
          "name": "tokenId",
          "type": "uint256"
        }
      ],
      "name": "safeTransferFrom",
      "outputs": [],
      "stateMutability": "nonpayable",
      "type": "function"
    },
    {
      "inputs": [
        {
          "internalType": "address",
          "name": "from",
          "type": "address"
        },
        {
          "internalType": "address",
          "name": "to",
          "type": "address"
        },
        {
          "internalType": "uint256",
          "name": "tokenId",
          "type": "uint256"
        },
        {
          "internalType": "bytes",
          "name": "data",
          "type": "bytes"
        }
      ],
      "name": "safeTransferFrom",
      "outputs": [],
      "stateMutability": "nonpayable",
      "type": "function"
    },
    {
      "inputs": [
        {
          "internalType": "address",
          "name": "operator",
          "type": "address"
        },
        {
          "internalType": "bool",
          "name": "approved",
          "type": "bool"
        }
      ],
      "name": "setApprovalForAll",
      "outputs": [],
      "stateMutability": "nonpayable",
      "type": "function"
    },
    {
      "inputs": [
        {
          "internalType": "bytes4",
          "name": "interfaceId",
          "type": "bytes4"
        }
      ],
      "name": "supportsInterface",
      "outputs": [
        {
          "internalType": "bool",
          "name": "",
          "type": "bool"
        }
      ],
      "stateMutability": "view",
      "type": "function"
    },
    {
      "inputs": [],
      "name": "symbol",
      "outputs": [
        {
          "internalType": "string",
          "name": "",
          "type": "string"
        }
      ],
      "stateMutability": "view",
      "type": "function"
    },
    {
      "inputs": [
        {
          "internalType": "uint256",
          "name": "tokenId",
          "type": "uint256"
        }
      ],
      "name": "tokenURI",
      "outputs": [
        {
          "internalType": "string",
          "name": "",
          "type": "string"
        }
      ],
      "stateMutability": "view",
      "type": "function"
    },
    {
      "inputs": [
        {
          "internalType": "address",
          "name": "from",
          "type": "address"
        },
        {
          "internalType": "address",
          "name": "to",
          "type": "address"
        },
        {
          "internalType": "uint256",
          "name": "tokenId",
          "type": "uint256"
        }
      ],
      "name": "transferFrom",
      "outputs": [],
      "stateMutability": "nonpayable",
      "type": "function"
    },
    {
      "inputs": [
        {
          "internalType": "address",
          "name": "newOwner",
          "type": "address"
        }
      ],
      "name": "transferOwnership",
      "outputs": [],
      "stateMutability": "nonpayable",
      "type": "function"
    }
  ],
  "bytecode": "0x6080346200037b57601f1990601f906001600160401b0362002e183881900384810186168401838111858210176200029d578492829160405283396020938491810103126200037b57516001600160a01b039384821692918390036200037b57620000696200037f565b93601085526f1414d30810da185b5c1a5bdb8813919560821b81860152620000906200037f565b9660068852651414d313919560d21b8289015285518481116200029d575f546001978882811c9216801562000370575b858310146200027e5781868493116200031d575b508490868311600114620002bd575f92620002b1575b50505f19600383901b1c191690871b175f555b87519384116200029d5785548681811c9116801562000292575b838210146200027e5783811162000236575b5081928411600114620001d057505081929394955f92620001c4575b50505f19600383901b1c191690831b1782555b8015620001ac57600680546001600160a01b03198116831790915560405193167f8be0079c531659141344cd1fd0a4f28419497f9722a3daafe3b4186f6b6457e05f80a3600955612a789081620003a08239f35b604051631e4fbdf760e01b81525f6004820152602490fd5b015190505f8062000145565b5f868152828120918516989193925b8982106200021e575050838697989695961062000205575b505050811b01825562000158565b01515f1960f88460031b161c191690555f8080620001f7565b808885968294968601518155019501930190620001df565b865f52825f208480870160051c82019285881062000274575b0160051c019087905b8281106200026857505062000129565b5f815501879062000258565b925081926200024f565b634e487b7160e01b5f52602260045260245ffd5b90607f169062000117565b634e487b7160e01b5f52604160045260245ffd5b015190505f80620000ea565b90848a9416915f8052865f20925f5b88828210620003065750508411620002ed575b505050811b015f55620000fd565b01515f1960f88460031b161c191690555f8080620002df565b8385015186558d97909501949384019301620002cc565b9091505f8052845f208680850160051c82019287861062000366575b918b91869594930160051c01915b82811062000357575050620000d4565b5f81558594508b910162000347565b9250819262000339565b91607f1691620000c0565b5f80fd5b60408051919082016001600160401b038111838210176200029d5760405256fe6080806040526004361015610012575f80fd5b5f3560e01c90816301ffc9a71461158f5750806306fdde03146114e8578063081812fc146114ac578063095ea7b3146113cb57806323b872dd146113b457806327aed72e1461134357806342842e0e1461131c5780636352211e146112ec5780636c6ce7251461102657806370a0823114610fd0578063715018a614610f7557806375794a3c14610f585780638bf0998514610ade5780638da5cb5b14610ab657806395d89b41146109ec578063a22cb4651461092d578063b88d4fde146108cc578063b9a626ed14610850578063c87b56dd146101e0578063e985e9c51461018e5763f2fde38b14610103575f80fd5b3461018a57602036600319011261018a5761011c611640565b610124611e23565b6001600160a01b0390811690811561017257600654826001600160601b0360a01b821617600655167f8be0079c531659141344cd1fd0a4f28419497f9722a3daafe3b4186f6b6457e05f80a3005b604051631e4fbdf760e01b81525f6004820152602490fd5b5f80fd5b3461018a57604036600319011261018a576101a7611640565b6101af611656565b9060018060a01b038091165f52600560205260405f2091165f52602052602060ff60405f2054166040519015158152f35b3461018a5760208060031936011261018a576004355f8181526002835260409020546001600160a01b03919082161561081457906107aa915f52600783526107a5610132631e17b39f60e11b60405f206040519461023d866116d9565b61058561020761024c84611781565b80895260ff600186015416938b8a01948552600360028701549660408c0197885201541660608a01528a661e17ba32bc3a1f60c91b61028a83611fb6565b9261029481612164565b604051998a957f3c7376672077696474683d2234303022206865696768743d223430302220786d868801527f6c6e733d22687474703a2f2f7777772e77332e6f72672f323030302f737667226040880152601f60f91b6060880152651e3232b3399f60d11b60618801527f3c6c696e6561724772616469656e742069643d2267726164222078313d22302560678801527f222079313d223025222078323d2231303025222079323d2231303025223e000060878801527f3c73746f70206f66667365743d22302522207374796c653d2273746f702d636f60a5880152633637b91d60e11b60c5880152610390815180928860c98b0191016115fa565b721db9ba37b816b7b830b1b4ba3c9d189110179f60691b60c9918801918201527f3c73746f70206f66667365743d223130302522207374796c653d2273746f702d60dc8201527f636f6c6f723a233030303b73746f702d6f7061636974793a302e3822202f3e0060fc820152701e17b634b732b0b923b930b234b2b73a1f60791b61011b820152661e17b232b3399f60c91b61012c8201527f3c726563742077696474683d2234303022206865696768743d223430302220666101338201527234b6361e913ab9361411b3b930b2149110179f60691b6101538201527f3c67207472616e73666f726d3d227472616e736c617465283230302c3230302961016682015261111f60f11b6101868201528251610188939091906104b9908390868401908a016115fa565b01918201527f3c7465787420783d223230302220793d223335302220746578742d616e63686f61018c8201527f723d226d6964646c65222066696c6c3d2277686974652220666f6e742d66616d6101ac8201527f696c793d22417269616c2220666f6e742d73697a653d2231362220666f6e742d6101cc8201526d3bb2b4b3b43a1e913137b632111f60911b6101ec8201526105616101fa94835193849187850191016115fa565b0191820152651e17b9bb339f60d11b610201820152036101e7810186520184611760565b7f227d2c207b2274726169745f74797065223a202254696d657374616d70222c206105ca6105c360ff6105b98a5197612903565b9951945116611e4f565b9351611e4f565b916040519788957f7b226e616d65223a202250534c204368616d70696f6e202d20000000000000008c88015261060a8c825192839160398b0191016115fa565b86017f222c20226465736372697074696f6e223a2022536f756c626f756e642061636860398201527f696576656d656e74204e465420666f722050534c2066616e746173792073706f60598201527f727473222c2022696d616765223a2022646174613a696d6167652f7376672b786079820152691b5b0ed8985cd94d8d0b60b21b60998201526106a58c835193849160a3850191016115fa565b0171222c202261747472696275746573223a205b60701b60a38201527f7b2274726169745f74797065223a2022416368696576656d656e74222c20227660b58201526730b63ab2911d101160c11b60d582015261070b825180938d60dd850191016115fa565b01927f227d2c207b2274726169745f74797065223a2022536561736f6e222c2022766160dd85015266363ab2911d101160c91b60fd85015261010493610759825180938d88850191016115fa565b019283015269113b30b63ab2911d101160b11b61012483015261012e91610788825180938b86850191016115fa565b019063227d5d7d60e01b9082015203610112810184520182611760565b612903565b906107fc603d60405180947f646174613a6170706c69636174696f6e2f6a736f6e3b6261736536342c000000858301526107ec815180928786860191016115fa565b810103601d810185520183611760565b61081060405192828493845283019061161b565b0390f35b60405162461bcd60e51b8152600481018490526014602482015273151bdad95b88191bd95cc81b9bdd08195e1a5cdd60621b6044820152606490fd5b3461018a57604036600319011261018a57610869611640565b6024356001600160401b03811161018a576108b76020809361089160ff943690600401611874565b9060018060a01b03165f526008825260405f2082604051948386809551938492016115fa565b82019081520301902054166040519015158152f35b3461018a57608036600319011261018a576108e5611640565b6108ed611656565b606435916001600160401b03831161018a573660238401121561018a5761092161092b93369060248160040135910161183e565b9160443591611c9b565b005b3461018a57604036600319011261018a57610946611640565b6024359081151580920361018a5733156109d4576001600160a01b03169081156109bb57335f52600560205260405f20825f5260205260405f2060ff1981541660ff83161790556040519081527f17307eab39ab6107e8899845ad3d59bd9653f200f220920489ca2b5937696c3160203392a3005b604051630b61174360e31b815260048101839052602490fd5b60405163a9fbf51f60e01b81525f6004820152602490fd5b3461018a575f36600319011261018a576040515f60018260015492610a10846116a1565b92838352602094856001821691825f14610a96575050600114610a3b575b506107fc92500383611760565b84915060015f527fb10e2d527612073b26eecdfd717e6a320cf44b4afac2b0732d9fcbe2b7fa0cf6905f915b858310610a7e5750506107fc935082010185610a2e565b80548389018501528794508693909201918101610a67565b60ff1916858201526107fc95151560051b8501019250879150610a2e9050565b3461018a575f36600319011261018a576006546040516001600160a01b039091168152602090f35b3461018a57606036600319011261018a57610af7611640565b6001600160401b039060243582811161018a57610b18903690600401611874565b916044359260ff8416840361018a57610b2f611e23565b60018060a01b0383165f52600860205260ff60405f20602060405180928551610b5b8184868a016115fa565b8201908152030190205416610f135760095491610b7783611c79565b60095560405190610b87826116d9565b82825260ff8616602083015242604083015260018060a01b0385166060830152835f52600760205260405f209082518051918211610eff578190610bcb84546116a1565b601f8111610eb2575b50602090601f8311600114610e4a575f92610e3f575b50508160011b915f199060031b1c19161781555b6003600182019160ff6020850151169260ff199384825416179055604084015160028201550191606060018060a01b0391015116916001600160601b0360a01b928382541617905560018060a01b0385165f526008602052600160405f20602060405180928751610c728184868c016115fa565b82019081520301902080549092161790556001600160a01b03841615610e27575f838152600260205260409020546001600160a01b0316151580610e1f575b610dda575f838152600260205260409020546001600160a01b03168015159184919083610da7575b6001600160a01b0387165f81815260036020908152604080832080546001019055868352600290915281208054909316821790925591907fddf252ad1be2c89b69c2b068fc378daa952ba7f163c4a11628f55a4df523b3ef9080a4610d8f577f921226fd7694e780902d5f09f1651a7cd915eb83bbb56766470e62c9c52594eb92610d749260ff60405194859460608652606086019061161b565b9616602084015260408301526001600160a01b0316930390a2005b6040516339e3563760e11b81525f6004820152602490fd5b5f83815260046020526040902080546001600160a01b0319169055815f52600360205260405f205f198154019055610cd9565b60405162461bcd60e51b815260206004820152601f60248201527f536f756c626f756e643a205472616e73666572206e6f7420616c6c6f776564006044820152606490fd5b506001610cb1565b604051633250574960e11b81525f6004820152602490fd5b015190508880610bea565b9250835f5260205f20905f935b601f1984168510610e97576001945083601f19811610610e7f575b505050811b018155610bfe565b01515f1960f88460031b161c19169055888080610e72565b81810151835560209485019460019093019290910190610e57565b909150835f5260205f20601f840160051c810160208510610ef8575b90849392915b601f830160051c82018110610eea575050610bd4565b5f8155859450600101610ed4565b5080610ece565b634e487b7160e01b5f52604160045260245ffd5b60405162461bcd60e51b815260206004820152601c60248201527f416c726561647920686173207468697320616368696576656d656e74000000006044820152606490fd5b3461018a575f36600319011261018a576020600954604051908152f35b3461018a575f36600319011261018a57610f8d611e23565b600680546001600160a01b031981169091555f906001600160a01b03167f8be0079c531659141344cd1fd0a4f28419497f9722a3daafe3b4186f6b6457e08280a3005b3461018a57602036600319011261018a576001600160a01b03610ff1611640565b16801561100e575f526003602052602060405f2054604051908152f35b6040516322718ad960e21b81525f6004820152602490fd5b3461018a5760208060031936011261018a57611040611640565b60405161012081018181106001600160401b03821117610eff5760405260089060088152835f5b61010081106112dc57505061107a611a8d565b61108382611ab8565b5261108d81611ab8565b50611096611b5e565b61109f82611ad9565b526110a981611ad9565b506110b2611b83565b6110bb82611ae9565b526110c581611ae9565b506110ce611bac565b6110d782611af9565b526110e181611af9565b506110ea611bd5565b6110f382611b09565b526110fd81611b09565b50611106611bfe565b61110f82611b19565b5261111981611b19565b50611122611c2a565b61112b82611b29565b5261113581611b29565b5061113e611c51565b61114782611b39565b5261115181611b39565b506001600160a01b03909216915f91825b82518110156111c657845f5281865260ff61119a8760405f206111858588611b4a565b519082604051948386809551938492016115fa565b82019081520301902054166111b2575b600101611162565b926111be600191611c79565b9390506111aa565b50906111d183611a76565b926111df6040519485611760565b8084526111ee601f1991611a76565b01855f5b8281106112cd575050505f915f5b825181101561127057855f5281875260ff6112238860405f206111858588611b4a565b820190815203019020541661123b575b600101611200565b9261126860019161124c8686611b4a565b516112578289611b4a565b526112628188611b4a565b50611c79565b939050611233565b604080518881528651818a018190525f92600582901b8301810191898c01918c9085015b8287106112a15785850386f35b9091929382806112bd600193603f198a8203018652885161161b565b9601920196019592919092611294565b606086820183015281016111f2565b6060828285010152018490611067565b3461018a57602036600319011261018a57602061130a600435611de9565b6040516001600160a01b039091168152f35b3461018a5761092b61132d3661166c565b906040519261133b846116f4565b5f8452611c9b565b3461018a57602036600319011261018a576004355f5260076020526113a060405f2061136e81611781565b9060ff60018201541690600281015490600360018060a01b03910154169060405194859460808652608086019061161b565b926020850152604084015260608301520390f35b3461018a5761092b6113c53661166c565b91611892565b3461018a57604036600319011261018a576113e4611640565b6024356113f081611de9565b33151580611499575b80611470575b611458576001600160a01b039283169282918491167f8c5be1e5ebec7d5bd14f71427d1e84f3dd0314c0f7b2291e5b200ac8c7c3b9255f80a45f90815260046020526040902080546001600160a01b0319169091179055005b60405163a9fbf51f60e01b8152336004820152602490fd5b5060018060a01b0381165f52600560205260405f20335f5260205260ff60405f205416156113ff565b506001600160a01b0381163314156113f9565b3461018a57602036600319011261018a576004356114c981611de9565b505f526004602052602060018060a01b0360405f205416604051908152f35b3461018a575f36600319011261018a576040515f80549082611509836116a1565b91828252602093600190856001821691825f14610a9657505060011461153657506107fc92500383611760565b5f808052859250907f290decd9548b62a8d60345a988386fc84ba6bc95484008f6362f93160ef3e5635b8583106115775750506107fc935082010185610a2e565b80548389018501528794508693909201918101611560565b3461018a57602036600319011261018a576004359063ffffffff60e01b821680920361018a576020916380ac58cd60e01b81149081156115e9575b81156115d8575b5015158152f35b6301ffc9a760e01b149050836115d1565b635b5e139f60e01b811491506115ca565b5f5b83811061160b5750505f910152565b81810151838201526020016115fc565b90602091611634815180928185528580860191016115fa565b601f01601f1916010190565b600435906001600160a01b038216820361018a57565b602435906001600160a01b038216820361018a57565b606090600319011261018a576001600160a01b0390600435828116810361018a5791602435908116810361018a579060443590565b90600182811c921680156116cf575b60208310146116bb57565b634e487b7160e01b5f52602260045260245ffd5b91607f16916116b0565b608081019081106001600160401b03821117610eff57604052565b602081019081106001600160401b03821117610eff57604052565b604081019081106001600160401b03821117610eff57604052565b60c081019081106001600160401b03821117610eff57604052565b60a081019081106001600160401b03821117610eff57604052565b90601f801991011681019081106001600160401b03821117610eff57604052565b9060405191825f8254611793816116a1565b908184526020946001916001811690815f1461180157506001146117c3575b5050506117c192500383611760565b565b5f90815285812095935091905b8183106117e95750506117c193508201015f80806117b2565b855488840185015294850194879450918301916117d0565b925050506117c194925060ff191682840152151560051b8201015f80806117b2565b6001600160401b038111610eff57601f01601f191660200190565b92919261184a82611823565b916118586040519384611760565b82948184528183011161018a578281602093845f960137010152565b9080601f8301121561018a5781602061188f9335910161183e565b90565b6001600160a01b039182169290918315610e2757815f526020926002845260409482865f205416151580611a6e575b611a2a578390815f526002865283875f2054169533151580611998575b5060029087611967575b825f5260038152885f2060018154019055835f5252865f20816001600160601b0360a01b825416179055857fddf252ad1be2c89b69c2b068fc378daa952ba7f163c4a11628f55a4df523b3ef5f80a416928383036119465750505050565b6064945051926364283d7b60e01b8452600484015260248301526044820152fd5b5f84815260046020526040812080546001600160a01b03191690558881526003825289902080545f190190556118e8565b91925090806119e9575b156119b0579084915f6118de565b8685876119cd576024915190637e27328960e01b82526004820152fd5b604491519063177e802f60e01b82523360048301526024820152fd5b503386148015611a0e575b806119a25750845f52600481523384885f205416146119a2565b50855f5260058152865f20335f52815260ff875f2054166119f4565b855162461bcd60e51b815260048101869052601f60248201527f536f756c626f756e643a205472616e73666572206e6f7420616c6c6f776564006044820152606490fd5b5060016118c1565b6001600160401b038111610eff5760051b60200190565b60405190611a9a8261170f565b600f82526e29a2a0a9a7a72fa1a420a6a824a7a760891b6020830152565b805115611ac55760200190565b634e487b7160e01b5f52603260045260245ffd5b805160011015611ac55760400190565b805160021015611ac55760600190565b805160031015611ac55760800190565b805160041015611ac55760a00190565b805160051015611ac55760c00190565b805160061015611ac55760e00190565b805160071015611ac5576101000190565b8051821015611ac55760209160051b010190565b60405190611b6b8261170f565b60098252681513d417d4d0d3d55560ba1b6020830152565b60405190611b908261170f565b600d82526c4449414d4f4e445f48414e445360981b6020830152565b60405190611bb98261170f565b600d82526c22a0a9262cafa0a227a82a22a960991b6020830152565b60405190611be28261170f565b600d82526c434f4d454241434b5f4b494e4760981b6020830152565b60405190611c0b8261170f565b601082526f534556454e5f4441595f53545245414b60801b6020830152565b60405190611c378261170f565b600b82526a1413d5d15497d4d0d3d55560aa1b6020830152565b60405190611c5e8261170f565b600c82526b26a0aa21a42fa6a0a9aa22a960a11b6020830152565b5f198114611c875760010190565b634e487b7160e01b5f52601160045260245ffd5b9192611ca8848385611892565b813b611cb5575b50505050565b604051630a85bd0160e11b8082523360048301526001600160a01b03948516602483015260448201959095526080606482015260209593909216939190859082908190611d0690608483019061161b565b03815f885af15f9181611da9575b50611d73575050503d5f14611d6b573d91611d2e83611823565b92611d3c6040519485611760565b83523d5f8285013e5b82519283611d6657604051633250574960e11b815260048101849052602490fd5b019050fd5b606091611d45565b9193506001600160e01b031990911603611d9157505f808080611caf565b60249060405190633250574960e11b82526004820152fd5b9091508581813d8311611de2575b611dc18183611760565b8101031261018a57516001600160e01b03198116810361018a57905f611d14565b503d611db7565b5f818152600260205260409020546001600160a01b0316908115611e0b575090565b60249060405190637e27328960e01b82526004820152fd5b6006546001600160a01b03163303611e3757565b60405163118cdaa760e01b8152336004820152602490fd5b805f917a184f03e93ff9f4daa797ed6e38ed64bf6a1f01000000000000000080821015611fa8575b506d04ee2d6d415b85acef810000000080831015611f99575b50662386f26fc1000080831015611f8a575b506305f5e10080831015611f7b575b5061271080831015611f6c575b506064821015611f5c575b600a80921015611f52575b6001908160216001860195611ee887611823565b96611ef66040519889611760565b808852611f05601f1991611823565b01366020890137860101905b611f1d575b5050505090565b5f19019083906f181899199a1a9b1b9c1cb0b131b232b360811b8282061a835304918215611f4d57919082611f11565b611f16565b9160010191611ed4565b9190606460029104910191611ec9565b6004919392049101915f611ebe565b6008919392049101915f611eb1565b6010919392049101915f611ea2565b6020919392049101915f611e90565b60409350810491505f611e77565b8051602091828101918220611fc9611a8d565b8481519101201461214a5780518220611fe0611b5e565b848151910120146121305780518220611ff7611b83565b84815191012014612116578051822061200e611bac565b848151910120146120fc5780518220612025611bd5565b848151910120146120e2578051822061203c611bfe565b848151910120146120c85780518220612053611c2a565b848151910120146120ae57519020612069611c51565b8281519101201461209657660233830383038360cc1b6040519161208c8361170f565b6007835282015290565b66119c209921229960c91b6040519161208c8361170f565b5050662346463134393360c81b6040519161208c8361170f565b50506611999921a2199960c91b6040519161208c8361170f565b5050660234646343530360cc1b6040519161208c8361170f565b505066119c999b98222160c91b6040519161208c8361170f565b5050660233430453044360cc1b6040519161208c8361170f565b5050660234330433043360cc1b6040519161208c8361170f565b5050660234646443730360cc1b6040519161208c8361170f565b8051602091828101918220612177611a8d565b84815191012014612842578051822061218e611b5e565b8481519101201461278557805182206121a5611b83565b848151910120146126e657805182206121bc611bac565b8481519101201461262357805182206121d3611bd5565b8481519101201461257757805182206121ea611bfe565b848151910120146124d85780518220612201611c2a565b848151910120146123df57519020612217611c51565b828151910120146122bf577f3c7061746820643d224d302c2d3530204c34302c2d3330204c34302c3230204c6040519161225083611745565b607083528201527f302c3530204c2d34302c3230204c2d34302c2d3330205a222066696c6c3d226360408201527f757272656e74436f6c6f7222207374726f6b653d22233830383038302220737460608201526f3937b5b296bbb4b23a341e911991179f60811b608082015290565b604051906101008201908282106001600160401b03831117610eff577f3c7061746820643d224d2d33302c2d3430204c33302c2d3430204c32352c2d329160405260ce83528201527f30204c32352c3230204c31352c3330204c31352c3430204c2d31352c3430204c60408201527f2d31352c3330204c2d32352c3230204c2d32352c2d3230205a222066696c6c3d60608201527f2263757272656e74436f6c6f7222207374726f6b653d2223384132424532222060808201527f7374726f6b652d77696474683d2233222f3e3c656c6c697073652063783d223060a08201527f222063793d223435222072783d223230222072793d2235222066696c6c3d226360c08201526d3ab93932b73a21b7b637b911179f60911b60e082015290565b50506040519060e08201908282106001600160401b03831117610eff577f3c636972636c652063783d222d3130222063793d222d31302220723d223235229160405260ac83528201527f2066696c6c3d226e6f6e6522207374726f6b653d2263757272656e74436f6c6f60408201527f7222207374726f6b652d77696474683d2235222f3e3c7061746820643d224d3160608201527f302c3130204c33352c333522207374726f6b653d2263757272656e74436f6c6f60808201527f7222207374726f6b652d77696474683d223522207374726f6b652d6c696e656360a08201526b30b81e913937bab73211179f60a11b60c082015290565b50507f3c7061746820643d224d2d32302c2d3530204c32302c2d3130204c302c2d31306040519161250883611745565b607083528201527f204c32302c3530204c2d32302c3130204c302c3130205a222066696c6c3d226360408201527f757272656e74436f6c6f7222207374726f6b653d22233332434433322220737460608201526f3937b5b296bbb4b23a341e911991179f60811b608082015290565b50507f3c7061746820643d224d302c2d3530204c33302c2d3230204c31352c2d323020604051916125a783611745565b607b83528201527f4c31352c3430204c2d31352c3430204c2d31352c2d3230204c2d33302c2d323060408201527f205a222066696c6c3d2263757272656e74436f6c6f7222207374726f6b653d2260608201527f2346463435303022207374726f6b652d77696474683d2233222f3e0000000000608082015290565b50507f3c7061746820643d224d302c2d3530204c31352c2d3135204c35302c2d313520604051916126538361172a565b608e83528201527f4c32352c35204c33352c3430204c302c3235204c2d33352c3430204c2d32352c60408201527f35204c2d35302c2d3135204c2d31352c2d3135205a222066696c6c3d2263757260608201527f72656e74436f6c6f7222207374726f6b653d222339333730444222207374726f60808201526d35b296bbb4b23a341e911991179f60911b60a082015290565b50507f3c7061746820643d224d302c2d3530204c33352c2d3235204c33352c3235204c6040519161271683611745565b607083528201527f302c3530204c2d33352c3235204c2d33352c2d3235205a222066696c6c3d226360408201527f757272656e74436f6c6f7222207374726f6b653d22233430453044302220737460608201526f3937b5b296bbb4b23a341e911991179f60811b608082015290565b50507f3c656c6c697073652063783d2230222063793d2230222072783d223530222072604051916127b58361172a565b608883528201527f793d223330222066696c6c3d2263757272656e74436f6c6f7222207374726f6b60408201527f653d222343304330433022207374726f6b652d77696474683d2233222f3e3c6360608201527f6972636c652063783d2230222063793d22302220723d223135222066696c6c3d608082015267111198181811179f60c11b60a082015290565b50507f3c7061746820643d224d2d36302c2d3430204c2d34302c2d3630204c2d32302c604051916128728361172a565b608c83528201527f2d3430204c302c2d3630204c32302c2d3430204c34302c2d3630204c36302c2d60408201527f3430204c36302c3430204c2d36302c3430205a222066696c6c3d22637572726560608201527f6e74436f6c6f7222207374726f6b653d222346464437303022207374726f6b6560808201526b16bbb4b23a341e911991179f60a11b60a082015290565b805115612a2f578051916002808401809411611c8757600393849004600281901b91906001600160fe1b03811603611c875793604051937f4142434445464748494a4b4c4d4e4f505152535455565758595a616263646566601f52603f917f6768696a6b6c6d6e6f707172737475767778797a303132333435363738392b2f603f5260208601928291835184019160208301998a51945f8c525b8481106129f3575050505050906003916020959697525106806001146129de576002146129d1575b50808452830101604052565b603d905f1901535f6129c5565b50603d90815f1982015360011901535f6129c5565b836004919c95989c019b838d51818160121c165183538181600c1c16516001840153818160061c1651858401531651858201530196939a61299d565b50604051612a3c816116f4565b5f81529056fea264697066735822122033c0bc6673535bcfe77efc5b52cb1419245bc64bd7fece0cf8e918579cf5b64664736f6c63430008180033",
  "linkReferences": {},
  "deployedLinkReferences": {}
}