{
  "_format": "hh-sol-artifact-1",
  "contractName": "PrizePool",
  "sourceName": "contracts/pool/PrizePool.sol",
  "abi": [
    {
      "inputs": [
        {
          "internalType": "address",
          "name": "initialOwner_",
          "type": "address"
        }
      ],
      "stateMutability": "nonpayable",
      "type": "constructor"
    },
    {
      "inputs": [
        {
          "internalType": "address",
          "name": "owner",
          "type": "address"
        }
      ],
      "name": "OwnableInvalidOwner",
      "type": "error"
    },
    {
      "inputs": [
        {
          "internalType": "address",
          "name": "account",
          "type": "address"
        }
      ],
      "name": "OwnableUnauthorizedAccount",
      "type": "error"
    },
    {
      "inputs": [],
      "name": "ReentrancyGuardReentrantCall",
      "type": "error"
    },
    {
      "anonymous": false,
      "inputs": [
        {
          "indexed": false,
          "internalType": "uint8",
          "name": "season",
          "type": "uint8"
        },
        {
          "indexed": false,
          "internalType": "uint256",
          "name": "amount",
          "type": "uint256"
        },
        {
          "indexed": false,
          "internalType": "uint256",
          "name": "matchShare",
          "type": "uint256"
        }
      ],
      "name": "FeeReceived",
      "type": "event"
    },
    {
      "anonymous": false,
      "inputs": [
        {
          "indexed": false,
          "internalType": "uint8",
          "name": "season",
          "type": "uint8"
        },
        {
          "indexed": false,
          "internalType": "uint8",
          "name": "matchId",
          "type": "uint8"
        },
        {
          "indexed": false,
          "internalType": "uint256",
          "name": "totalDistributed",
          "type": "uint256"
        }
      ],
      "name": "MatchRewardsDistributed",
      "type": "event"
    },
    {
      "anonymous": false,
      "inputs": [
        {
          "indexed": true,
          "internalType": "address",
          "name": "previousOwner",
          "type": "address"
        },
        {
          "indexed": true,
          "internalType": "address",
          "name": "newOwner",
          "type": "address"
        }
      ],
      "name": "OwnershipTransferred",
      "type": "event"
    },
    {
      "anonymous": false,
      "inputs": [
        {
          "indexed": false,
          "internalType": "address",
          "name": "wallet",
          "type": "address"
        },
        {
          "indexed": false,
          "internalType": "uint256",
          "name": "amount",
          "type": "uint256"
        },
        {
          "indexed": false,
          "internalType": "string",
          "name": "reason",
          "type": "string"
        }
      ],
      "name": "RewardAllocated",
      "type": "event"
    },
    {
      "anonymous": false,
      "inputs": [
        {
          "indexed": false,
          "internalType": "address",
          "name": "wallet",
          "type": "address"
        },
        {
          "indexed": false,
          "internalType": "uint256",
          "name": "amount",
          "type": "uint256"
        }
      ],
      "name": "RewardClaimed",
      "type": "event"
    },
    {
      "inputs": [],
      "name": "claimRewards",
      "outputs": [],
      "stateMutability": "nonpayable",
      "type": "function"
    },
    {
      "inputs": [],
      "name": "currentSeason",
      "outputs": [
        {
          "internalType": "uint8",
          "name": "",
          "type": "uint8"
        }
      ],
      "stateMutability": "view",
      "type": "function"
    },
    {
      "inputs": [
        {
          "internalType": "uint8",
          "name": "seasonId",
          "type": "uint8"
        },
        {
          "internalType": "uint8",
          "name": "matchId",
          "type": "uint8"
        },
        {
          "internalType": "address[]",
          "name": "stakerWallets",
          "type": "address[]"
        },
        {
          "internalType": "uint256[]",
          "name": "stakerAmounts",
          "type": "uint256[]"
        },
        {
          "internalType": "uint8[]",
          "name": "stakerPlayerIds",
          "type": "uint8[]"
        },
        {
          "internalType": "uint256[]",
          "name": "playerFpsScores",
          "type": "uint256[]"
        },
        {
          "internalType": "uint8[]",
          "name": "uniquePlayerIds",
          "type": "uint8[]"
        },
        {
          "internalType": "uint256[]",
          "name": "totalStakedPerPlayer",
          "type": "uint256[]"
        }
      ],
      "name": "distributeMatchRewards",
      "outputs": [],
      "stateMutability": "nonpayable",
      "type": "function"
    },
    {
      "inputs": [],
      "name": "marketAddress",
      "outputs": [
        {
          "internalType": "address",
          "name": "",
          "type": "address"
        }
      ],
      "stateMutability": "view",
      "type": "function"
    },
    {
      "inputs": [
        {
          "internalType": "uint8",
          "name": "",
          "type": "uint8"
        },
        {
          "internalType": "uint8",
          "name": "",
          "type": "uint8"
        }
      ],
      "name": "matchDistributed",
      "outputs": [
        {
          "internalType": "bool",
          "name": "",
          "type": "bool"
        }
      ],
      "stateMutability": "view",
      "type": "function"
    },
    {
      "inputs": [],
      "name": "oracleAddress",
      "outputs": [
        {
          "internalType": "address",
          "name": "",
          "type": "address"
        }
      ],
      "stateMutability": "view",
      "type": "function"
    },
    {
      "inputs": [],
      "name": "owner",
      "outputs": [
        {
          "internalType": "address",
          "name": "",
          "type": "address"
        }
      ],
      "stateMutability": "view",
      "type": "function"
    },
    {
      "inputs": [
        {
          "internalType": "address",
          "name": "",
          "type": "address"
        }
      ],
      "name": "pendingRewards",
      "outputs": [
        {
          "internalType": "uint256",
          "name": "",
          "type": "uint256"
        }
      ],
      "stateMutability": "view",
      "type": "function"
    },
    {
      "inputs": [
        {
          "internalType": "uint8",
          "name": "seasonId",
          "type": "uint8"
        }
      ],
      "name": "receiveFee",
      "outputs": [],
      "stateMutability": "payable",
      "type": "function"
    },
    {
      "inputs": [],
      "name": "renounceOwnership",
      "outputs": [],
      "stateMutability": "nonpayable",
      "type": "function"
    },
    {
      "inputs": [
        {
          "internalType": "uint8",
          "name": "",
          "type": "uint8"
        }
      ],
      "name": "seasons",
      "outputs": [
        {
          "internalType": "uint256",
          "name": "matchPool",
          "type": "uint256"
        },
        {
          "internalType": "uint256",
          "name": "platformFee",
          "type": "uint256"
        },
        {
          "internalType": "uint256",
          "name": "totalFees",
          "type": "uint256"
        }
      ],
      "stateMutability": "view",
      "type": "function"
    },
    {
      "inputs": [
        {
          "internalType": "address",
          "name": "m",
          "type": "address"
        }
      ],
      "name": "setMarket",
      "outputs": [],
      "stateMutability": "nonpayable",
      "type": "function"
    },
    {
      "inputs": [
        {
          "internalType": "address",
          "name": "o",
          "type": "address"
        }
      ],
      "name": "setOracle",
      "outputs": [],
      "stateMutability": "nonpayable",
      "type": "function"
    },
    {
      "inputs": [
        {
          "internalType": "uint8",
          "name": "s",
          "type": "uint8"
        }
      ],
      "name": "setSeason",
      "outputs": [],
      "stateMutability": "nonpayable",
      "type": "function"
    },
    {
      "inputs": [],
      "name": "totalRewardsDistributed",
      "outputs": [
        {
          "internalType": "uint256",
          "name": "",
          "type": "uint256"
        }
      ],
      "stateMutability": "view",
      "type": "function"
    },
    {
      "inputs": [
        {
          "internalType": "address",
          "name": "newOwner",
          "type": "address"
        }
      ],
      "name": "transferOwnership",
      "outputs": [],
      "stateMutability": "nonpayable",
      "type": "function"
    },
    {
      "inputs": [
        {
          "internalType": "uint8",
          "name": "seasonId",
          "type": "uint8"
        }
      ],
      "name": "withdrawPlatformFee",
      "outputs": [],
      "stateMutability": "nonpayable",
      "type": "function"
    },
    {
      "stateMutability": "payable",
      "type": "receive"
    }
  ],
  "bytecode": "0x6080346100ea57601f6110d138819003918201601f19168301916001600160401b038311848410176100ee578084926020946040528339810103126100ea57516001600160a01b0390818116908190036100ea5780156100d2575f80546001600160a01b03198116831782556040519316907f8be0079c531659141344cd1fd0a4f28419497f9722a3daafe3b4186f6b6457e09080a360017f9b779b17422d0df92223018b32b4d1fa46e071723d6817e2486d003becc55f0055600160ff196002541617600255610fce90816101038239f35b604051631e4fbdf760e01b81525f6004820152602490fd5b5f80fd5b634e487b7160e01b5f52604160045260245ffdfe610120604081815260049182361015610022575b5050503615610020575f80fd5b005b5f3560e01c90816312b9d7a61461081957508063253863b3146106f857806331d7a262146106bf578063372500ab146105ea5780636dcea85f14610596578063715018a61461053f5780637adbf973146104e15780637b3b22511461049a5780638da5cb5b14610473578063956236411461044b578063a89ae4ba1461041f578063bcb39621146103fe578063cd62bdd01461029c578063e21fccf714610269578063ec4d92b514610199578063ee1725461461017b5763f2fde38b146100e95780610013565b34610177576020366003190112610177576001600160a01b038235818116939192908490036101775761011a610f6d565b83156101615750505f54826bffffffffffffffffffffffff60a01b8216175f55167f8be0079c531659141344cd1fd0a4f28419497f9722a3daafe3b4186f6b6457e05f80a3005b905f6024925191631e4fbdf760e01b8352820152fd5b5f80fd5b5034610177575f366003190112610177576020906005549051908152f35b5090346101775760203660031901126101775760ff6101b661085d565b6101be610f6d565b6101c6610f2b565b16805f5260016020526001835f2001549182156102345761020e5f808080878160018b8a8352816020528220015560018060a01b038254165af1610208610e80565b50610ebb565b60017f9b779b17422d0df92223018b32b4d1fa46e071723d6817e2486d003becc55f0055005b606490602085519162461bcd60e51b8352820152600f60248201526e4e6f20706c6174666f726d2066656560881b6044820152fd5b346101775760203660031901126101775760ff61028461085d565b61028c610f6d565b1660ff1960025416176002555f80f35b5060209081600319360112610177576102b361085d565b600354909390336001600160a01b03918216149081156103f1575b50156103bf57341561039057605034029034820460500361037d577f19f2e44cabdcde8564488b5b2cd48ea624cbe93da27d0b7b4b61218e294b01ae60608660648504868860ff61031f84346109f0565b941693845f5260018252825f2061033785825461093d565b9055845f52600182526103516001845f200191825461093d565b9055835f52600181526002825f200161036b34825461093d565b905581519384523490840152820152a1005b601190634e487b7160e01b5f525260245ffd5b82606492519162461bcd60e51b8352820152600b60248201526a139bc8199959481cd95b9d60aa1b6044820152fd5b82606492519162461bcd60e51b8352820152600e60248201526d139bdd08185d5d1a1bdc9a5e995960921b6044820152fd5b90505f541633145f6102ce565b5034610177575f3660031901126101775760209060ff600254169051908152f35b5034610177575f36600319011261017757600254905160089190911c6001600160a01b03168152602090f35b5034610177575f3660031901126101775760035490516001600160a01b039091168152602090f35b5034610177575f366003190112610177575f5490516001600160a01b039091168152602090f35b50346101775760203660031901126101775760609060ff6104b961085d565b165f526001602052805f20805491600260018301549201549181519384526020840152820152f35b823461017757602036600319011261017757356001600160a01b0381168082036101775761051890610511610f6d565b1515610ef9565b60028054610100600160a81b03191660089290921b610100600160a81b0316919091179055005b34610177575f36600319011261017757610557610f6d565b5f80546001600160a01b0319811682556001600160a01b03167f8be0079c531659141344cd1fd0a4f28419497f9722a3daafe3b4186f6b6457e08280a3005b823461017757602036600319011261017757356001600160a01b03811690819003610177576105c3610f6d565b6105ce811515610ef9565b6bffffffffffffffffffffffff60a01b60035416176003555f80f35b5034610177575f36600319011261017757610603610f2b565b335f5281602052805f20548015610686577f106f923f993c2149d49b4255ff723acafa1f2d94393f561d3eda32ae348f724192335f526020525f828120556106545f80808085335af1610208610e80565b8151903382526020820152a160017f9b779b17422d0df92223018b32b4d1fa46e071723d6817e2486d003becc55f0055005b815162461bcd60e51b815260208185015260136024820152724e6f207265776172647320746f20636c61696d60681b6044820152606490fd5b50346101775760203660031901126101775781356001600160a01b0381169290839003610177576020925f528252805f20549051908152f35b509034610177576101003660031901126101775761071461085d565b9061071d61086d565b67ffffffffffffffff6044358181116101775761073d903690850161087d565b9060643583811161017757610755903690870161087d565b906084358581116101775761076d903690890161087d565b92909160a435878111610177576107879036908b0161087d565b96909560c435898111610177576107a19036908d0161087d565b9a909960e435908111610177578c6107bb9136910161087d565b600254909e919d9060081c6001600160a01b031633036107e8575061020e9e506107e3610f2b565b6109fd565b8f906020606492519162461bcd60e51b8352820152600a6024820152694e6f74206f7261636c6560b01b6044820152fd5b90503461017757816003193601126101775760ff60209261083861085d565b8261084161086d565b91165f526006855282825f2091165f5284525f20541615158152f35b6004359060ff8216820361017757565b6024359060ff8216820361017757565b9181601f840112156101775782359167ffffffffffffffff8311610177576020808501948460051b01011161017757565b156108b557565b60405162461bcd60e51b8152602060048201526015602482015274082e4e4c2f240d8cadccee8d040dad2e6dac2e8c6d605b1b6044820152606490fd5b91908110156109025760051b0190565b634e487b7160e01b5f52603260045260245ffd5b8181029291811591840414171561092957565b634e487b7160e01b5f52601160045260245ffd5b9190820180921161092957565b6040519190601f01601f1916820167ffffffffffffffff81118382101761097057604052565b634e487b7160e01b5f52604160045260245ffd5b67ffffffffffffffff81116109705760051b60200190565b81156109a6570490565b634e487b7160e01b5f52601260045260245ffd5b80518210156109025760209160051b010190565b3560ff811681036101775790565b356001600160a01b03811681036101775790565b9190820391821161092957565b9c959b949692919a989793999c60e05260c05260805260a0526101005260ff60e051165f52600660205260405f2060ff60c051165f5260205260ff60405f205416610e4557610a4f83608051146108ae565b610a5e60a051608051146108ae565b610a698486146108ae565b610a748286146108ae565b60ff60e051165f52600160205260405f2054938415610e00575f805b878110610dcf57508015610d5757610aaf610aaa88610984565b61094a565b87815295601f19610abf89610984565b01366020890137835f5b868a8210610d10575050505050505f985f5b6080518110610b89575050505050505050505060607f6f0780139e345c945d71afda5f7248330ee1c41281b1f2a8c58bdd2dfc39de6e9160ff60e051165f52600160205260405f20610b2e8282546109f0565b9055610b3c8160055461093d565b60055560ff60e051165f52600660205260405f2060ff60c051165f5260205260405f20600160ff198254161790556040519060ff60e05116825260ff60c0511660208301526040820152a1565b610b9e610b998260a0518d6108f2565b6109ce565b5f199060ff165f5b89808210610ce6575b5050505f198114610cdd57610bc58186866108f2565b3590868a8315610cd15791610bed610be586610bf494610bf997966108f2565b35918b6109ba565b5190610916565b61099c565b9a8b15610cc7576080516001600160a01b0390610c189084908d6108f2565b610c21906109dc565b165f5260046020528b60405f2081815490610c3b9161093d565b9055610c469161093d565b9a8160805190610c56918c6108f2565b610c5f906109dc565b60405191606091600160a01b6001900316835260208301528060408301528101600b9052608081016a6d617463685f7374616b6560a81b905260a07fd68ee71ad03ef52f154032d91a6a39b80c7afb4dc0ba28b4fd009a19f4a126f691a16001905b01610adb565b9a50600190610cc1565b50505050600190610cc1565b50600190610cc1565b60ff610cf7610b998486948a6108f2565b1614610d0557600101610ba6565b9150505f8089610baf565b84610bf485610d3f600196610d3887610d4497610d31828f610100516108f2565b35936108f2565b3590610916565b610916565b610d4e828b6109ba565b52018490610ac9565b505050505050505050505060ff60e051165f52600660205260405f2060ff60c051165f5260205260405f20600160ff198254161790557f6f0780139e345c945d71afda5f7248330ee1c41281b1f2a8c58bdd2dfc39de6e606060405160ff60e05116815260ff60c0511660208201525f6040820152a1565b90610df9600191610df3610de78587610100516108f2565b35610d38868a8a6108f2565b9061093d565b9101610a90565b60405162461bcd60e51b815260206004820152601b60248201527f4e6f206d6174636820706f6f6c20746f206469737472696275746500000000006044820152606490fd5b60405162461bcd60e51b8152602060048201526013602482015272105b1c9958591e48191a5cdd1c9a589d5d1959606a1b6044820152606490fd5b3d15610eb6573d9067ffffffffffffffff821161097057610eaa601f8301601f191660200161094a565b9182523d5f602084013e565b606090565b15610ec257565b60405162461bcd60e51b815260206004820152600f60248201526e151c985b9cd9995c8819985a5b1959608a1b6044820152606490fd5b15610f0057565b606460405162461bcd60e51b81526020600482015260046024820152635a65726f60e01b6044820152fd5b7f9b779b17422d0df92223018b32b4d1fa46e071723d6817e2486d003becc55f006002815414610f5b5760029055565b604051633ee5aeb560e01b8152600490fd5b5f546001600160a01b03163303610f8057565b60405163118cdaa760e01b8152336004820152602490fdfea26469706673582212209c2105691a1794e9f94d0fbb769be95e35806bad79118c1e44e2ead8c3990a1364736f6c63430008180033",
  "linkReferences": {},
  "deployedLinkReferences": {}
}