{
  "_format": "hh-sol-artifact-1",
  "contractName": "PSLPlayerToken",
  "sourceName": "contracts/tokens/PSLPlayerToken.sol",
  "abi": [
    {
      "inputs": [
        {
          "internalType": "string",
          "name": "name_",
          "type": "string"
        },
        {
          "internalType": "string",
          "name": "symbol_",
          "type": "string"
        },
        {
          "internalType": "uint8",
          "name": "tier_",
          "type": "uint8"
        },
        {
          "internalType": "uint8",
          "name": "playerId_",
          "type": "uint8"
        },
        {
          "internalType": "address",
          "name": "oracle_",
          "type": "address"
        },
        {
          "internalType": "address",
          "name": "market_",
          "type": "address"
        },
        {
          "internalType": "address",
          "name": "initialOwner_",
          "type": "address"
        }
      ],
      "stateMutability": "nonpayable",
      "type": "constructor"
    },
    {
      "inputs": [
        {
          "internalType": "address",
          "name": "spender",
          "type": "address"
        },
        {
          "internalType": "uint256",
          "name": "allowance",
          "type": "uint256"
        },
        {
          "internalType": "uint256",
          "name": "needed",
          "type": "uint256"
        }
      ],
      "name": "ERC20InsufficientAllowance",
      "type": "error"
    },
    {
      "inputs": [
        {
          "internalType": "address",
          "name": "sender",
          "type": "address"
        },
        {
          "internalType": "uint256",
          "name": "balance",
          "type": "uint256"
        },
        {
          "internalType": "uint256",
          "name": "needed",
          "type": "uint256"
        }
      ],
      "name": "ERC20InsufficientBalance",
      "type": "error"
    },
    {
      "inputs": [
        {
          "internalType": "address",
          "name": "approver",
          "type": "address"
        }
      ],
      "name": "ERC20InvalidApprover",
      "type": "error"
    },
    {
      "inputs": [
        {
          "internalType": "address",
          "name": "receiver",
          "type": "address"
        }
      ],
      "name": "ERC20InvalidReceiver",
      "type": "error"
    },
    {
      "inputs": [
        {
          "internalType": "address",
          "name": "sender",
          "type": "address"
        }
      ],
      "name": "ERC20InvalidSender",
      "type": "error"
    },
    {
      "inputs": [
        {
          "internalType": "address",
          "name": "spender",
          "type": "address"
        }
      ],
      "name": "ERC20InvalidSpender",
      "type": "error"
    },
    {
      "inputs": [
        {
          "internalType": "address",
          "name": "owner",
          "type": "address"
        }
      ],
      "name": "OwnableInvalidOwner",
      "type": "error"
    },
    {
      "inputs": [
        {
          "internalType": "address",
          "name": "account",
          "type": "address"
        }
      ],
      "name": "OwnableUnauthorizedAccount",
      "type": "error"
    },
    {
      "inputs": [],
      "name": "ReentrancyGuardReentrantCall",
      "type": "error"
    },
    {
      "anonymous": false,
      "inputs": [
        {
          "indexed": true,
          "internalType": "address",
          "name": "owner",
          "type": "address"
        },
        {
          "indexed": true,
          "internalType": "address",
          "name": "spender",
          "type": "address"
        },
        {
          "indexed": false,
          "internalType": "uint256",
          "name": "value",
          "type": "uint256"
        }
      ],
      "name": "Approval",
      "type": "event"
    },
    {
      "anonymous": false,
      "inputs": [
        {
          "indexed": false,
          "internalType": "uint256",
          "name": "oldMultiplier",
          "type": "uint256"
        },
        {
          "indexed": false,
          "internalType": "uint256",
          "name": "newMultiplier",
          "type": "uint256"
        },
        {
          "indexed": false,
          "internalType": "uint256",
          "name": "fps",
          "type": "uint256"
        }
      ],
      "name": "MultiplierUpdated",
      "type": "event"
    },
    {
      "anonymous": false,
      "inputs": [
        {
          "indexed": true,
          "internalType": "address",
          "name": "previousOwner",
          "type": "address"
        },
        {
          "indexed": true,
          "internalType": "address",
          "name": "newOwner",
          "type": "address"
        }
      ],
      "name": "OwnershipTransferred",
      "type": "event"
    },
    {
      "anonymous": false,
      "inputs": [
        {
          "indexed": false,
          "internalType": "address",
          "name": "wallet",
          "type": "address"
        },
        {
          "indexed": false,
          "internalType": "uint256",
          "name": "streak",
          "type": "uint256"
        }
      ],
      "name": "StreakUpdated",
      "type": "event"
    },
    {
      "anonymous": false,
      "inputs": [
        {
          "indexed": true,
          "internalType": "address",
          "name": "from",
          "type": "address"
        },
        {
          "indexed": true,
          "internalType": "address",
          "name": "to",
          "type": "address"
        },
        {
          "indexed": false,
          "internalType": "uint256",
          "name": "value",
          "type": "uint256"
        }
      ],
      "name": "Transfer",
      "type": "event"
    },
    {
      "inputs": [
        {
          "internalType": "address",
          "name": "owner",
          "type": "address"
        },
        {
          "internalType": "address",
          "name": "spender",
          "type": "address"
        }
      ],
      "name": "allowance",
      "outputs": [
        {
          "internalType": "uint256",
          "name": "",
          "type": "uint256"
        }
      ],
      "stateMutability": "view",
      "type": "function"
    },
    {
      "inputs": [
        {
          "internalType": "address",
          "name": "spender",
          "type": "address"
        },
        {
          "internalType": "uint256",
          "name": "value",
          "type": "uint256"
        }
      ],
      "name": "approve",
      "outputs": [
        {
          "internalType": "bool",
          "name": "",
          "type": "bool"
        }
      ],
      "stateMutability": "nonpayable",
      "type": "function"
    },
    {
      "inputs": [
        {
          "internalType": "address",
          "name": "account",
          "type": "address"
        }
      ],
      "name": "balanceOf",
      "outputs": [
        {
          "internalType": "uint256",
          "name": "",
          "type": "uint256"
        }
      ],
      "stateMutability": "view",
      "type": "function"
    },
    {
      "inputs": [],
      "name": "decimals",
      "outputs": [
        {
          "internalType": "uint8",
          "name": "",
          "type": "uint8"
        }
      ],
      "stateMutability": "view",
      "type": "function"
    },
    {
      "inputs": [],
      "name": "getEffectiveMultiplier",
      "outputs": [
        {
          "internalType": "uint256",
          "name": "",
          "type": "uint256"
        }
      ],
      "stateMutability": "view",
      "type": "function"
    },
    {
      "inputs": [
        {
          "internalType": "address",
          "name": "",
          "type": "address"
        }
      ],
      "name": "holdStreak",
      "outputs": [
        {
          "internalType": "uint256",
          "name": "",
          "type": "uint256"
        }
      ],
      "stateMutability": "view",
      "type": "function"
    },
    {
      "inputs": [
        {
          "internalType": "address",
          "name": "",
          "type": "address"
        }
      ],
      "name": "lastHoldTimestamp",
      "outputs": [
        {
          "internalType": "uint256",
          "name": "",
          "type": "uint256"
        }
      ],
      "stateMutability": "view",
      "type": "function"
    },
    {
      "inputs": [],
      "name": "marketAddress",
      "outputs": [
        {
          "internalType": "address",
          "name": "",
          "type": "address"
        }
      ],
      "stateMutability": "view",
      "type": "function"
    },
    {
      "inputs": [],
      "name": "name",
      "outputs": [
        {
          "internalType": "string",
          "name": "",
          "type": "string"
        }
      ],
      "stateMutability": "view",
      "type": "function"
    },
    {
      "inputs": [],
      "name": "oracleAddress",
      "outputs": [
        {
          "internalType": "address",
          "name": "",
          "type": "address"
        }
      ],
      "stateMutability": "view",
      "type": "function"
    },
    {
      "inputs": [],
      "name": "owner",
      "outputs": [
        {
          "internalType": "address",
          "name": "",
          "type": "address"
        }
      ],
      "stateMutability": "view",
      "type": "function"
    },
    {
      "inputs": [],
      "name": "performanceMultiplier",
      "outputs": [
        {
          "internalType": "uint256",
          "name": "",
          "type": "uint256"
        }
      ],
      "stateMutability": "view",
      "type": "function"
    },
    {
      "inputs": [],
      "name": "playerId",
      "outputs": [
        {
          "internalType": "uint8",
          "name": "",
          "type": "uint8"
        }
      ],
      "stateMutability": "view",
      "type": "function"
    },
    {
      "inputs": [],
      "name": "renounceOwnership",
      "outputs": [],
      "stateMutability": "nonpayable",
      "type": "function"
    },
    {
      "inputs": [
        {
          "internalType": "address",
          "name": "newMarket",
          "type": "address"
        }
      ],
      "name": "setMarket",
      "outputs": [],
      "stateMutability": "nonpayable",
      "type": "function"
    },
    {
      "inputs": [
        {
          "internalType": "address",
          "name": "newOracle",
          "type": "address"
        }
      ],
      "name": "setOracle",
      "outputs": [],
      "stateMutability": "nonpayable",
      "type": "function"
    },
    {
      "inputs": [],
      "name": "symbol",
      "outputs": [
        {
          "internalType": "string",
          "name": "",
          "type": "string"
        }
      ],
      "stateMutability": "view",
      "type": "function"
    },
    {
      "inputs": [],
      "name": "tier",
      "outputs": [
        {
          "internalType": "uint8",
          "name": "",
          "type": "uint8"
        }
      ],
      "stateMutability": "view",
      "type": "function"
    },
    {
      "inputs": [
        {
          "internalType": "address",
          "name": "",
          "type": "address"
        }
      ],
      "name": "totalDaysHeld",
      "outputs": [
        {
          "internalType": "uint256",
          "name": "",
          "type": "uint256"
        }
      ],
      "stateMutability": "view",
      "type": "function"
    },
    {
      "inputs": [],
      "name": "totalSupply",
      "outputs": [
        {
          "internalType": "uint256",
          "name": "",
          "type": "uint256"
        }
      ],
      "stateMutability": "view",
      "type": "function"
    },
    {
      "inputs": [
        {
          "internalType": "address",
          "name": "to",
          "type": "address"
        },
        {
          "internalType": "uint256",
          "name": "value",
          "type": "uint256"
        }
      ],
      "name": "transfer",
      "outputs": [
        {
          "internalType": "bool",
          "name": "",
          "type": "bool"
        }
      ],
      "stateMutability": "nonpayable",
      "type": "function"
    },
    {
      "inputs": [
        {
          "internalType": "address",
          "name": "from",
          "type": "address"
        },
        {
          "internalType": "address",
          "name": "to",
          "type": "address"
        },
        {
          "internalType": "uint256",
          "name": "value",
          "type": "uint256"
        }
      ],
      "name": "transferFrom",
      "outputs": [
        {
          "internalType": "bool",
          "name": "",
          "type": "bool"
        }
      ],
      "stateMutability": "nonpayable",
      "type": "function"
    },
    {
      "inputs": [
        {
          "internalType": "address",
          "name": "newOwner",
          "type": "address"
        }
      ],
      "name": "transferOwnership",
      "outputs": [],
      "stateMutability": "nonpayable",
      "type": "function"
    },
    {
      "inputs": [
        {
          "internalType": "uint256",
          "name": "newMultiplier",
          "type": "uint256"
        },
        {
          "internalType": "uint256",
          "name": "fps",
          "type": "uint256"
        }
      ],
      "name": "updateMultiplier",
      "outputs": [],
      "stateMutability": "nonpayable",
      "type": "function"
    },
    {
      "inputs": [
        {
          "internalType": "address",
          "name": "wallet",
          "type": "address"
        }
      ],
      "name": "updateStreak",
      "outputs": [],
      "stateMutability": "nonpayable",
      "type": "function"
    }
  ],
  "bytecode": "0x604060c0815234620004b457620012eb803803806200001e81620004b8565b928339810160e082820312620004b45781516001600160401b0390818111620004b457826200004f918501620004de565b6020928385015190838211620004b4576200006c918601620004de565b916200007a8686016200054e565b9462000089606082016200054e565b62000097608083016200055d565b90620000b460c0620000ac60a086016200055d565b94016200055d565b938551818111620003b0576003908154906001988983811c93168015620004a9575b8c841014620004955781908c601f948581116200043f575b50508c90848311600114620003d0575f92620003c4575b50505f1982851b1c191690891b1782555b8851928311620003b05760049889548981811c91168015620003a5575b8c8210146200039257908b8284879695941162000338575b50508b918411600114620002cf575f93620002c3575b505082881b925f19911b1c19161786555b6001600160a01b03938416978815620002ad57908492916005549660018060a01b03199a808c8a1617600555858d5199167f8be0079c531659141344cd1fd0a4f28419497f9722a3daafe3b4186f6b6457e05f80a37f9b779b17422d0df92223018b32b4d1fa46e071723d6817e2486d003becc55f0055606460085560805260a05216866006541617600655168094600754161760075583156200029a575060025468056bc75e2d63100000918282018092116200028757506002555f8381528083528481208054830190558451918252917fddf252ad1be2c89b69c2b068fc378daa952ba7f163c4a11628f55a4df523b3ef91a351610d789081620005738239608051816109ab015260a051816105ba0152f35b601190634e487b7160e01b5f525260245ffd5b5f60249263ec442f0560e01b8352820152fd5b8951631e4fbdf760e01b81525f81890152602490fd5b015191505f8062000161565b5f8b81528c81208b965093929190601f198616908e5b82821062000320575050851162000306575b50505050811b01865562000172565b01519060f8845f19921b161c191690555f808080620002f7565b8385015187558d989096019593840193018e620002e5565b9091929394508b5f5283825f209181880160051c830193881062000388575b918c918897969594930160051c01915b8281106200037957508d91506200014b565b5f81558796508c910162000367565b9250819262000357565b60228b634e487b7160e01b5f525260245ffd5b90607f169062000133565b634e487b7160e01b5f52604160045260245ffd5b015190505f8062000105565b8b9350908d91601f198416875f52835f20935f905b8282106200041d575050841162000405575b505050811b01825562000116565b01515f1983871b60f8161c191690555f8080620003f7565b91929395968291958786015181550195019301908f918e9695949392620003e5565b90919250855f5284825f209181860160051c83019386106200048b575b918d91869594930160051c01915b8281106200047c57508e9150620000ee565b5f81558594508d91016200046a565b925081926200045c565b634e487b7160e01b5f52602260045260245ffd5b92607f1692620000d6565b5f80fd5b6040519190601f01601f191682016001600160401b03811183821017620003b057604052565b919080601f84011215620004b45782516001600160401b038111620003b05760209062000514601f8201601f19168301620004b8565b92818452828287010111620004b4575f5b8181106200053a5750825f9394955001015290565b858101830151848201840152820162000525565b519060ff82168203620004b457565b51906001600160a01b0382168203620004b45756fe608060409080825260049081361015610016575f80fd5b5f3560e01c90816306fdde0314610a7857508063095ea7b3146109cf57806316f4d0221461099257806318160ddd146109745780631eb42c281461093d57806323b872dd1461084c578063269855f8146106b2578063313ce567146106975780635676cace1461036c5780635e22a611146106605780636dcea85f1461061457806370a08231146105de578063713c0e1a146105a1578063715018a6146105465780637adbf973146104fa5780638da5cb5b146104d257806395623641146104aa57806395d89b411461038a578063a485b7861461036c578063a89ae4ba14610344578063a9059cbb14610314578063bad60f181461023f578063c76d580c14610208578063dd62ed3e146101bf5763f2fde38b14610133575f80fd5b346101bb5760203660031901126101bb5761014c610bb5565b90610155610cf6565b6001600160a01b039182169283156101a5575050600554826001600160601b0360a01b821617600555167f8be0079c531659141344cd1fd0a4f28419497f9722a3daafe3b4186f6b6457e05f80a3005b905f6024925191631e4fbdf760e01b8352820152fd5b5f80fd5b82346101bb57806003193601126101bb576020906101db610bb5565b6101e3610bcb565b9060018060a01b038091165f5260018452825f2091165f528252805f20549051908152f35b82346101bb5760203660031901126101bb576020906001600160a01b0361022d610bb5565b165f52600a8252805f20549051908152f35b5090346101bb57806003193601126101bb57600654823592906001600160a01b031633036102e55782156102ae575060607f0de1269906fcaa631bbf70b295a7d636351c0e9f4fb7825498bdda2ff94ff4949160085490805191825284602083015260243590820152a1600855005b6020606492519162461bcd60e51b8352820152601260248201527124b73b30b634b21036bab63a34b83634b2b960711b6044820152fd5b6020606492519162461bcd60e51b8352820152600a6024820152694e6f74206f7261636c6560b01b6044820152fd5b82346101bb57806003193601126101bb5760209061033d610333610bb5565b6024359033610c1c565b5160018152f35b82346101bb575f3660031901126101bb5760065490516001600160a01b039091168152602090f35b82346101bb575f3660031901126101bb576020906008549051908152f35b5090346101bb575f3660031901126101bb578051905f835460018160011c90600183169283156104a0575b602093848410811461048d57838852908115610471575060011461041d575b505050829003601f01601f191682019267ffffffffffffffff84118385101761040a5750829182610406925282610b6e565b0390f35b604190634e487b7160e01b5f525260245ffd5b5f878152929350837f8a35acfbc15ff81a39ae7d344fd709f28e8600b4aa8c65c6b64bfe7fe36bd19b5b83851061045d57505050508301015f80806103d4565b805488860183015293019284908201610447565b60ff1916878501525050151560051b84010190505f80806103d4565b602289634e487b7160e01b5f525260245ffd5b91607f16916103b5565b82346101bb575f3660031901126101bb5760075490516001600160a01b039091168152602090f35b82346101bb575f3660031901126101bb5760055490516001600160a01b039091168152602090f35b346101bb5760203660031901126101bb57610513610bb5565b61051b610cf6565b6001600160a01b031661052f811515610be1565b6001600160601b0360a01b60065416176006555f80f35b346101bb575f3660031901126101bb5761055e610cf6565b600580546001600160a01b031981169091555f906001600160a01b03167f8be0079c531659141344cd1fd0a4f28419497f9722a3daafe3b4186f6b6457e08280a3005b82346101bb575f3660031901126101bb576020905160ff7f0000000000000000000000000000000000000000000000000000000000000000168152f35b82346101bb5760203660031901126101bb576020906001600160a01b03610603610bb5565b165f525f8252805f20549051908152f35b346101bb5760203660031901126101bb5761062d610bb5565b610635610cf6565b6001600160a01b0316610649811515610be1565b6001600160601b0360a01b60075416176007555f80f35b82346101bb5760203660031901126101bb576020906001600160a01b03610685610bb5565b165f5260098252805f20549051908152f35b82346101bb575f3660031901126101bb576020905160128152f35b5090346101bb576020806003193601126101bb576106ce610bb5565b6007546001600160a01b0391908216330361081c571690815f52600a8152825f20546201518080420490820491155f1461076b575050815f52600981526001835f2055600b8152825f2080549060018201809211610758575f80516020610d238339815191529550555b815f52600a815242835f205560098152825f2054908351928352820152a1005b601186634e487b7160e01b5f525260245ffd5b81810361078a575b50505f80516020610d238339815191529350610738565b6001820180921161075857036107e457815f5260098152825f20805490600182018092116107585755815f52600b8152825f2080549060018201809211610758575f80516020610d238339815191529550555b5f80610773565b815f52600981526001835f2055600b8152825f2080549060018201809211610758575f80516020610d238339815191529550556107dd565b835162461bcd60e51b8152808601849052600a602482015269139bdd081b585c9ad95d60b21b6044820152606490fd5b50346101bb5760603660031901126101bb57610866610bb5565b61086e610bcb565b906044359260018060a01b038216805f526001602052855f20335f52602052855f2054915f1983106108a9575b60208761033d888888610c1c565b8583106109115781156108fb5733156108e557505f9081526001602090815286822033835281529086902091859003909155829061033d61089b565b6024905f885191634a1406b160e11b8352820152fd5b6024905f88519163e602df0560e01b8352820152fd5b8651637dc7a0d960e11b8152339181019182526020820193909352604081018690528291506060010390fd5b82346101bb5760203660031901126101bb576020906001600160a01b03610962610bb5565b165f52600b8252805f20549051908152f35b82346101bb575f3660031901126101bb576020906002549051908152f35b82346101bb575f3660031901126101bb576020905160ff7f0000000000000000000000000000000000000000000000000000000000000000168152f35b5090346101bb57806003193601126101bb576109e9610bb5565b602435903315610a62576001600160a01b0316908115610a4c5760209350335f5260018452825f20825f52845280835f205582519081527f8c5be1e5ebec7d5bd14f71427d1e84f3dd0314c0f7b2291e5b200ac8c7c3b925843392a35160018152f35b8251634a1406b160e11b81525f81860152602490fd5b825163e602df0560e01b81525f81860152602490fd5b905082346101bb575f3660031901126101bb575f60035460018160011c9060018316928315610b64575b602093848410811461048d57838852908115610b485750600114610af257505050829003601f01601f191682019267ffffffffffffffff84118385101761040a5750829182610406925282610b6e565b60035f908152929350837fc2575a0e9e593c00f959f8c92f12db2869c3395a3b0502d05e2516446f71f85b5b838510610b3457505050508301018480806103d4565b805488860183015293019284908201610b1e565b60ff1916878501525050151560051b84010190508480806103d4565b91607f1691610aa2565b602080825282518183018190529093925f5b828110610ba157505060409293505f838284010152601f8019910116010190565b818101860151848201604001528501610b80565b600435906001600160a01b03821682036101bb57565b602435906001600160a01b03821682036101bb57565b15610be857565b60405162461bcd60e51b815260206004820152600c60248201526b5a65726f206164647265737360a01b6044820152606490fd5b916001600160a01b03808416928315610cde5716928315610cc657825f525f60205260405f205490828210610c945750817fddf252ad1be2c89b69c2b068fc378daa952ba7f163c4a11628f55a4df523b3ef92602092855f525f84520360405f2055845f5260405f20818154019055604051908152a3565b60405163391434e360e21b81526001600160a01b03919091166004820152602481019190915260448101829052606490fd5b60405163ec442f0560e01b81525f6004820152602490fd5b604051634b637e8f60e11b81525f6004820152602490fd5b6005546001600160a01b03163303610d0a57565b60405163118cdaa760e01b8152336004820152602490fdfe46f6fe577ecfefe55b0f14f0b42ddb4c22db1fb9bade43aa02c5ef4e5439512ea26469706673582212209aa7c13b183c8bea0a38e045bf49efc9f0bf252b5d64beab7572276f2533e3d164736f6c63430008180033",
  "linkReferences": {},
  "deployedLinkReferences": {}
}