{
  "_format": "hh-sol-artifact-1",
  "contractName": "PSLOracle",
  "sourceName": "contracts/oracle/PSLOracle.sol",
  "abi": [
    {
      "inputs": [
        {
          "internalType": "address",
          "name": "prizePool_",
          "type": "address"
        },
        {
          "internalType": "address",
          "name": "initialOwner_",
          "type": "address"
        }
      ],
      "stateMutability": "nonpayable",
      "type": "constructor"
    },
    {
      "inputs": [
        {
          "internalType": "address",
          "name": "owner",
          "type": "address"
        }
      ],
      "name": "OwnableInvalidOwner",
      "type": "error"
    },
    {
      "inputs": [
        {
          "internalType": "address",
          "name": "account",
          "type": "address"
        }
      ],
      "name": "OwnableUnauthorizedAccount",
      "type": "error"
    },
    {
      "anonymous": false,
      "inputs": [
        {
          "indexed": true,
          "internalType": "uint8",
          "name": "matchId",
          "type": "uint8"
        },
        {
          "indexed": false,
          "internalType": "uint256",
          "name": "playersProcessed",
          "type": "uint256"
        }
      ],
      "name": "BatchMatchProcessed",
      "type": "event"
    },
    {
      "anonymous": false,
      "inputs": [
        {
          "indexed": true,
          "internalType": "uint8",
          "name": "matchId",
          "type": "uint8"
        },
        {
          "indexed": true,
          "internalType": "uint8",
          "name": "playerId",
          "type": "uint8"
        },
        {
          "indexed": false,
          "internalType": "uint256",
          "name": "fps",
          "type": "uint256"
        },
        {
          "indexed": false,
          "internalType": "uint256",
          "name": "multiplier",
          "type": "uint256"
        }
      ],
      "name": "MatchProcessed",
      "type": "event"
    },
    {
      "anonymous": false,
      "inputs": [
        {
          "indexed": true,
          "internalType": "address",
          "name": "previousOwner",
          "type": "address"
        },
        {
          "indexed": true,
          "internalType": "address",
          "name": "newOwner",
          "type": "address"
        }
      ],
      "name": "OwnershipTransferred",
      "type": "event"
    },
    {
      "inputs": [
        {
          "components": [
            {
              "internalType": "uint8",
              "name": "matchId",
              "type": "uint8"
            },
            {
              "internalType": "uint8",
              "name": "playerId",
              "type": "uint8"
            },
            {
              "internalType": "address",
              "name": "playerTokenAddr",
              "type": "address"
            },
            {
              "internalType": "uint32",
              "name": "runs",
              "type": "uint32"
            },
            {
              "internalType": "uint32",
              "name": "balls",
              "type": "uint32"
            },
            {
              "internalType": "uint32",
              "name": "wickets",
              "type": "uint32"
            },
            {
              "internalType": "uint32",
              "name": "dotsBowled",
              "type": "uint32"
            },
            {
              "internalType": "uint32",
              "name": "runsConc",
              "type": "uint32"
            },
            {
              "internalType": "uint32",
              "name": "oversBowled",
              "type": "uint32"
            },
            {
              "internalType": "uint32",
              "name": "catches",
              "type": "uint32"
            },
            {
              "internalType": "uint32",
              "name": "stumpings",
              "type": "uint32"
            },
            {
              "internalType": "uint32",
              "name": "runOuts",
              "type": "uint32"
            },
            {
              "internalType": "uint32",
              "name": "droppedCatches",
              "type": "uint32"
            },
            {
              "internalType": "bool",
              "name": "notOut",
              "type": "bool"
            },
            {
              "internalType": "bool",
              "name": "matchWon",
              "type": "bool"
            },
            {
              "internalType": "bool",
              "name": "topScorer",
              "type": "bool"
            },
            {
              "internalType": "bool",
              "name": "deathOver",
              "type": "bool"
            }
          ],
          "internalType": "struct PSLOracle.MatchResult",
          "name": "r",
          "type": "tuple"
        }
      ],
      "name": "calculateFPS",
      "outputs": [
        {
          "internalType": "uint256",
          "name": "fps",
          "type": "uint256"
        },
        {
          "internalType": "uint256",
          "name": "multiplier",
          "type": "uint256"
        }
      ],
      "stateMutability": "pure",
      "type": "function"
    },
    {
      "inputs": [],
      "name": "championNFT",
      "outputs": [
        {
          "internalType": "contract ChampionNFT",
          "name": "",
          "type": "address"
        }
      ],
      "stateMutability": "view",
      "type": "function"
    },
    {
      "inputs": [],
      "name": "currentMatch",
      "outputs": [
        {
          "internalType": "uint8",
          "name": "",
          "type": "uint8"
        }
      ],
      "stateMutability": "view",
      "type": "function"
    },
    {
      "inputs": [],
      "name": "owner",
      "outputs": [
        {
          "internalType": "address",
          "name": "",
          "type": "address"
        }
      ],
      "stateMutability": "view",
      "type": "function"
    },
    {
      "inputs": [
        {
          "internalType": "uint8",
          "name": "",
          "type": "uint8"
        },
        {
          "internalType": "uint8",
          "name": "",
          "type": "uint8"
        }
      ],
      "name": "playerMatchFps",
      "outputs": [
        {
          "internalType": "uint256",
          "name": "",
          "type": "uint256"
        }
      ],
      "stateMutability": "view",
      "type": "function"
    },
    {
      "inputs": [
        {
          "internalType": "uint8",
          "name": "",
          "type": "uint8"
        },
        {
          "internalType": "uint8",
          "name": "",
          "type": "uint8"
        }
      ],
      "name": "playerMultiplier",
      "outputs": [
        {
          "internalType": "uint256",
          "name": "",
          "type": "uint256"
        }
      ],
      "stateMutability": "view",
      "type": "function"
    },
    {
      "inputs": [
        {
          "components": [
            {
              "internalType": "uint8",
              "name": "matchId",
              "type": "uint8"
            },
            {
              "internalType": "uint8",
              "name": "playerId",
              "type": "uint8"
            },
            {
              "internalType": "address",
              "name": "playerTokenAddr",
              "type": "address"
            },
            {
              "internalType": "uint32",
              "name": "runs",
              "type": "uint32"
            },
            {
              "internalType": "uint32",
              "name": "balls",
              "type": "uint32"
            },
            {
              "internalType": "uint32",
              "name": "wickets",
              "type": "uint32"
            },
            {
              "internalType": "uint32",
              "name": "dotsBowled",
              "type": "uint32"
            },
            {
              "internalType": "uint32",
              "name": "runsConc",
              "type": "uint32"
            },
            {
              "internalType": "uint32",
              "name": "oversBowled",
              "type": "uint32"
            },
            {
              "internalType": "uint32",
              "name": "catches",
              "type": "uint32"
            },
            {
              "internalType": "uint32",
              "name": "stumpings",
              "type": "uint32"
            },
            {
              "internalType": "uint32",
              "name": "runOuts",
              "type": "uint32"
            },
            {
              "internalType": "uint32",
              "name": "droppedCatches",
              "type": "uint32"
            },
            {
              "internalType": "bool",
              "name": "notOut",
              "type": "bool"
            },
            {
              "internalType": "bool",
              "name": "matchWon",
              "type": "bool"
            },
            {
              "internalType": "bool",
              "name": "topScorer",
              "type": "bool"
            },
            {
              "internalType": "bool",
              "name": "deathOver",
              "type": "bool"
            }
          ],
          "internalType": "struct PSLOracle.MatchResult",
          "name": "r",
          "type": "tuple"
        }
      ],
      "name": "previewFPS",
      "outputs": [
        {
          "internalType": "uint256",
          "name": "fps",
          "type": "uint256"
        },
        {
          "internalType": "uint256",
          "name": "multiplier",
          "type": "uint256"
        },
        {
          "internalType": "string",
          "name": "tier",
          "type": "string"
        }
      ],
      "stateMutability": "pure",
      "type": "function"
    },
    {
      "inputs": [],
      "name": "prizePool",
      "outputs": [
        {
          "internalType": "contract PrizePool",
          "name": "",
          "type": "address"
        }
      ],
      "stateMutability": "view",
      "type": "function"
    },
    {
      "inputs": [
        {
          "components": [
            {
              "internalType": "uint8",
              "name": "matchId",
              "type": "uint8"
            },
            {
              "internalType": "uint8",
              "name": "playerId",
              "type": "uint8"
            },
            {
              "internalType": "address",
              "name": "playerTokenAddr",
              "type": "address"
            },
            {
              "internalType": "uint32",
              "name": "runs",
              "type": "uint32"
            },
            {
              "internalType": "uint32",
              "name": "balls",
              "type": "uint32"
            },
            {
              "internalType": "uint32",
              "name": "wickets",
              "type": "uint32"
            },
            {
              "internalType": "uint32",
              "name": "dotsBowled",
              "type": "uint32"
            },
            {
              "internalType": "uint32",
              "name": "runsConc",
              "type": "uint32"
            },
            {
              "internalType": "uint32",
              "name": "oversBowled",
              "type": "uint32"
            },
            {
              "internalType": "uint32",
              "name": "catches",
              "type": "uint32"
            },
            {
              "internalType": "uint32",
              "name": "stumpings",
              "type": "uint32"
            },
            {
              "internalType": "uint32",
              "name": "runOuts",
              "type": "uint32"
            },
            {
              "internalType": "uint32",
              "name": "droppedCatches",
              "type": "uint32"
            },
            {
              "internalType": "bool",
              "name": "notOut",
              "type": "bool"
            },
            {
              "internalType": "bool",
              "name": "matchWon",
              "type": "bool"
            },
            {
              "internalType": "bool",
              "name": "topScorer",
              "type": "bool"
            },
            {
              "internalType": "bool",
              "name": "deathOver",
              "type": "bool"
            }
          ],
          "internalType": "struct PSLOracle.MatchResult[]",
          "name": "results",
          "type": "tuple[]"
        }
      ],
      "name": "pushMatchResults",
      "outputs": [],
      "stateMutability": "nonpayable",
      "type": "function"
    },
    {
      "inputs": [],
      "name": "renounceOwnership",
      "outputs": [],
      "stateMutability": "nonpayable",
      "type": "function"
    },
    {
      "inputs": [
        {
          "internalType": "address",
          "name": "n",
          "type": "address"
        }
      ],
      "name": "setNFT",
      "outputs": [],
      "stateMutability": "nonpayable",
      "type": "function"
    },
    {
      "inputs": [
        {
          "internalType": "address",
          "name": "s",
          "type": "address"
        }
      ],
      "name": "setStaking",
      "outputs": [],
      "stateMutability": "nonpayable",
      "type": "function"
    },
    {
      "inputs": [],
      "name": "stakingContract",
      "outputs": [
        {
          "internalType": "contract StakingContract",
          "name": "",
          "type": "address"
        }
      ],
      "stateMutability": "view",
      "type": "function"
    },
    {
      "inputs": [
        {
          "internalType": "address",
          "name": "newOwner",
          "type": "address"
        }
      ],
      "name": "transferOwnership",
      "outputs": [],
      "stateMutability": "nonpayable",
      "type": "function"
    }
  ],
  "bytecode": "0x60803461011a57601f620018a638819003918201601f19168301916001600160401b0383118484101761011e57808492604094855283398101031261011a57602061004982610132565b916001600160a01b0391829161005f9101610132565b16908115610102575f549260018060a01b03199280848616175f558260405195167f8be0079c531659141344cd1fd0a4f28419497f9722a3daafe3b4186f6b6457e05f80a360ff1960065416600655169182156100cf5750600154161760015560405161175f9081620001478239f35b62461bcd60e51b815260206004820152600e60248201526d16995c9bc81c1c9a5e99541bdbdb60921b6044820152606490fd5b604051631e4fbdf760e01b81525f6004820152602490fd5b5f80fd5b634e487b7160e01b5f52604160045260245ffd5b51906001600160a01b038216820361011a5756fe6080806040526004361015610012575f80fd5b5f3560e01c9081631b89db2514610f26575080632c70444e14610f065780634a3c3e5314610ede578063505ec30414610d8a5780636064883c14610d42578063715018a614610ceb578063719ce73e14610cc35780637b8e8dbb146102585780638da5cb5b146102315780638ff39099146101e1578063ee99205c146101b9578063efb4744e14610191578063f2fde38b1461010a5763f56e9c66146100b6575f80fd5b34610106576020366003190112610106576004356001600160a01b03811690819003610106576100e46116fe565b6100ef811515611051565b6001600160601b0360a01b60035416176003555f80f35b5f80fd5b34610106576020366003190112610106576004356001600160a01b0381811691829003610106576101396116fe565b8115610179575f54826001600160601b0360a01b8216175f55167f8be0079c531659141344cd1fd0a4f28419497f9722a3daafe3b4186f6b6457e05f80a3005b604051631e4fbdf760e01b81525f6004820152602490fd5b34610106576102203660031901126101065760406101ad611210565b82519182526020820152f35b34610106575f366003190112610106576002546040516001600160a01b039091168152602090f35b34610106576020366003190112610106576004356001600160a01b038116908190036101065761020f6116fe565b61021a811515611051565b6001600160601b0360a01b60025416176002555f80f35b34610106575f366003190112610106575f546040516001600160a01b039091168152602090f35b346101065760203660031901126101065767ffffffffffffffff806004351161010657366023600435011215610106576004356004013511610106573660246102206004356004013502600435010111610106576102b46116fe565b6004356004013515610c91576102ce602460043501610fef565b6102dd60043560040135610ffd565b6102ea6040519182610fcd565b6004803501358082526102fc90610ffd565b601f1990810136602084013761031760043560040135610ffd565b906103256040519283610fcd565b60048035013580835261033790610ffd565b013660208301375f5b6004356004013581106104e9575060025460015460405163bcb3962160e01b81526001600160a01b039283169392909160209183916004918391165afa90811561046d575f916104ad575b50823b15610106576040516322a4711960e01b815260ff861660048201526080602482015284516084820181905290948593929160a4850191602001905f5b81811061049157505050600319848203016044850152602080845192838152019301905f5b818110610478575050505f8381959360ff829416606483015203925af1801561046d5761045e575b5060ff811660ff1960065416176006557f5573f520a121b01537f4efbf7abfcb4c4290d187104cb274c311fd9d0b385309602060ff604051936004356004013585521692a2005b61046790610f89565b81610417565b6040513d5f823e3d90fd5b82518552879550602094850194909201916001016103ef565b825160ff168452889650602093840193909201916001016103ca565b90506020813d6020116104e1575b816104c860209383610fcd565b81010312610106575160ff81168103610106578561038b565b3d91506104bb565b60ff841660ff610503602461022085026004350101610fef565b1603610c4d5763ffffffff6004356102208302016084018161052482611083565b166064810290808204606414901517156109a0578060a4610220860260043501018461054f82611083565b16610b8a575b505060648361056384611083565b1610610b30576105729061114a565b905b8261058a6101c4610220870260043501016111f6565b9182610b19575b5050610b0b575b6105ad6101e4610220850260043501016111f6565b80610af0575b610ae2575b5f8112610adb575b60c461022084026004350101826105d682611083565b16610bb8908181029181830414901517156109a05780610124610220870260043501018561060382611083565b16610a1c575b50508361062060e461022088026004350101611083565b16906096820291808304609614901517156109a0578491610640916111db565b91610656610224610220880260043501016111f6565b610a0c575b60058261066783611083565b16106109cf5750506106789061114a565b6101a461022085026004350101908361069083611083565b1661012c81029080820461012c14901517156109a0576106af916110eb565b925f84126109c7575b806106ce61014461022088026004350101611083565b166104b0908181029181830414901517156109a057816106f961016461022089026004350101611083565b16610708908181029181830414901517156109a05761071791611203565b8161072d61018461022089026004350101611083565b16906105dc918281029281840414901517156109a0576107569161075091611203565b92611083565b16906107d082818102048114831517156109a0576107759202906110eb565b915f83126109bf575b5f91610fa08082121590816109b4575b50610974575b6064936107a86107ad94936107a893611203565b611203565b0490609682106109245761012c5b60ff86165f52600460205260405f2060ff6107e0604461022086026004350101610fef565b165f526020528260405f205560ff86165f52600560205260405f2060ff610811604461022086026004350101610fef565b165f526020528060405f2055610831604461022084026004350101610fef565b60ff61083d8488611015565b911690528261084c8386611015565b526001600160a01b036004356102208402016064018161086b8261103d565b166108c8575b505060019260ff61088c604461022086026004350101610fef565b169160405191825260208201527f95b9f012a619429776467df573e54649eaedbfa3a37a22540d32ce49af20a679604060ff891692a301610340565b6108d19061103d565b1692833b15610106575f809460446040518097819363175ac1e360e31b83528760048401528660248401525af193841561046d57600194610915575b819450610871565b61091e90610f89565b8761090d565b606482106109335760fa6107bb565b604682106109425760c86107bb565b602882106109515760966107bb565b601482106109605760646107bb565b811561096d57604b6107bb565b60326107bb565b90915061098182826111db565b600f9381858102058514821517156109a0579360649102059190610794565b634e487b7160e01b5f52601160045260245ffd5b90508212158961078e565b5f925061077e565b5f93506106b8565b6004826109db83611083565b16106109f15750506109ec9061112d565b610678565b906109fd600392611083565b1610610678576109ec90611110565b91610a1690611110565b9161065b565b85610a326101046102208a026004350101611083565b16906103e891828102908082048414901517156109a05787610a56610a5d93611083565b1690611094565b610258811015610a7a57505050610a73906111be565b8880610609565b6102bc811015610a9557505050610a9090611110565b610a73565b610320811015610aab57505050610a9090611167565b610384811015610ac157505050610a9090611103565b1015610ad15750610a90906110d8565b610a9091506110c5565b505f6105c0565b610aeb906111a1565b6105b8565b50610b06610204610220850260043501016111f6565b6105b3565b610b1490611167565b610598565b60149250610b2690611083565b1610158288610591565b604b83610b3c84611083565b1610610b5257610b4b9061112d565b905b610574565b603283610b5e84611083565b1610610b6d57610b4b90611184565b90601983610b7a83611083565b1610610b4d5790610b4b90611167565b84610b9485611083565b169061271091828102908082048414901517156109a05786610a56610bb893611083565b614e208110610bd457505050610bcd9061114a565b8780610555565b61445c8110610bee57505050610be99061112d565b610bcd565b613a988110610c0357505050610be990611110565b612ee08110610c1857505050610be990611103565b1080610c3a575b610c2a575b50610bcd565b610c3491506110b2565b87610c24565b5083610c4584611083565b161515610c1f565b606460405162461bcd60e51b815260206004820152602060248201527f416c6c20726573756c7473206d7573742062652073616d65206d6174636849646044820152fd5b60405162461bcd60e51b815260206004820152600a6024820152694e6f20726573756c747360b01b6044820152606490fd5b34610106575f366003190112610106576001546040516001600160a01b039091168152602090f35b34610106575f36600319011261010657610d036116fe565b5f80546001600160a01b0319811682556001600160a01b03167f8be0079c531659141344cd1fd0a4f28419497f9722a3daafe3b4186f6b6457e08280a3005b3461010657604036600319011261010657610d5b610f69565b60ff610d65610f79565b91165f52600560205260ff60405f2091165f52602052602060405f2054604051908152f35b346101065761022036600319011261010657610da4611210565b60968210610e3157604051610db881610fb1565b600b81526a115610d154151253d3905360aa1b602082015290915b60405192839182526020906020830152606060408301528251908160608401525f935b828510610e18575050608092505f838284010152601f80199101168101030190f35b8481018201518686016080015293810193859350610df6565b60648210610e6357604051610e4581610fb1565b6009815268115610d1531311539560ba1b6020820152905b91610dd3565b60468210610e8e57604051610e7781610fb1565b600481526311d3d3d160e21b602082015290610e5d565b60288210610ebb57604051610ea281610fb1565b6006815265111150d1539560d21b602082015290610e5d565b604051610ec781610fb1565b60048152632827a7a960e11b602082015290610e5d565b34610106575f366003190112610106576003546040516001600160a01b039091168152602090f35b34610106575f36600319011261010657602060ff60065416604051908152f35b3461010657604036600319011261010657602090610f42610f69565b60ff610f4c610f79565b91165f526004835260ff60405f2091165f52825260405f20548152f35b6004359060ff8216820361010657565b6024359060ff8216820361010657565b67ffffffffffffffff8111610f9d57604052565b634e487b7160e01b5f52604160045260245ffd5b6040810190811067ffffffffffffffff821117610f9d57604052565b90601f8019910116810190811067ffffffffffffffff821117610f9d57604052565b3560ff811681036101065790565b67ffffffffffffffff8111610f9d5760051b60200190565b80518210156110295760209160051b010190565b634e487b7160e01b5f52603260045260245ffd5b356001600160a01b03811681036101065790565b1561105857565b606460405162461bcd60e51b81526020600482015260046024820152635a65726f60e01b6044820152fd5b3563ffffffff811681036101065790565b811561109e570490565b634e487b7160e01b5f52601260045260245ffd5b906105db1982019182136001166109a057565b906107cf1982019182136001166109a057565b906103e71982019182136001166109a057565b81810392915f1380158285131691841216176109a057565b905f82128015166109a057565b906107d0915f83820193841291129080158216911516176109a057565b90610fa0915f83820193841291129080158216911516176109a057565b90611770915f83820193841291129080158216911516176109a057565b906103e8915f83820193841291129080158216911516176109a057565b906109c4915f83820193841291129080158216911516176109a057565b906105dc915f83820193841291129080158216911516176109a057565b90610bb8915f83820193841291129080158216911516176109a057565b9190915f83820193841291129080158216911516176109a057565b3580151581036101065790565b919082018092116109a057565b606490813563ffffffff808216809214158061010657848302831584820487148117156109a05781608435908582168092036101065781611639575b50505081610106578584106115f4576112649061114a565b925b6101a43591821515830361010657826115e2575b50506115d2575b6101c435801515810361010657806115c0575b6115b0575b5f82126115a8575b60a43581811680910361010657610bb88082029082820414821517156109a057806101043584811680910361010657806114ff575b505060c435838116809103610106576096810290808204609614901517156109a057611301916111db565b90610204358015158103610106576114ef575b600581106114c257506113269061114a565b915b61018435908282168092036101065761012c9382159083860284810487148317156109a057611356916110eb565b935f85126114ba575b61012435818116809103610106576104b0908181029181830414901517156109a0576101443582811680910361010657610708908181029181830414901517156109a0576113ac91611203565b9061016435908116809103610106576105dc908181029181830414901517156109a0576113d891611203565b906107d08085029485041417156109a05786926113f4916110eb565b925f84126114b2575b5f91610fa08082121590816114a7575b5061147a575b936107a86107a8926114259596611203565b049260968410611433575090565b9050808310611442575060fa90565b60468310611450575060c890565b6028831061145e5750609690565b601483106114695790565b50811561147557604b90565b603290565b9150915061148882826111db565b91600f830292808405600f14901517156109a057869283900591611413565b90508212155f61140d565b5f93506113fd565b5f945061135f565b600481106114da57506114d49061112d565b91611328565b6003909391931061132857916114d490611110565b906114f990611110565b90611314565b60e435858116809103610106576103e891828202918083048414901517156109a05761152a91611094565b61025881101561154757505050611540906111be565b5f806112d6565b6102bc8110156115625750505061155d90611110565b611540565b6103208110156115785750505061155d90611167565b61038481101561158e5750505061155d90611103565b101561159e575061155d906110d8565b61155d91506110c5565b5f91506112a1565b906115ba906111a1565b90611299565b506101e4358015158114611294575f80fd5b906115dc90611167565b90611281565b90915061010657601411155f8061127a565b5f9150604b841061160f576116089061112d565b925b611266565b5f9150603284106116235761160890611184565b925f91506019811061160a579261160890611167565b5f945090929161271087810288810482148317156109a057869561165c91611094565b614e20811061167b57505050506116729061114a565b905b5f8061124c565b61445c811061169757505050506116919061112d565b90611674565b613a9881106116ad575050505061169190611110565b612ee081106116c3575050505061169190611103565b9091929394501090816116f2575b509083916116e0575b50611674565b6116eb9192506110b2565b905f6116da565b5f9450159050836116d1565b5f546001600160a01b0316330361171157565b60405163118cdaa760e01b8152336004820152602490fdfea2646970667358221220bf602981d3691a5368b627821bd9e80167aabf956ddd2c0ab7241a1ab7d08ba064736f6c63430008180033",
  "linkReferences": {},
  "deployedLinkReferences": {}
}