{
  "_format": "hh-sol-artifact-1",
  "contractName": "StakingContract",
  "sourceName": "contracts/staking/StakingContract.sol",
  "abi": [
    {
      "inputs": [
        {
          "internalType": "address",
          "name": "prizePool_",
          "type": "address"
        },
        {
          "internalType": "address",
          "name": "initialOwner_",
          "type": "address"
        }
      ],
      "stateMutability": "nonpayable",
      "type": "constructor"
    },
    {
      "inputs": [
        {
          "internalType": "address",
          "name": "owner",
          "type": "address"
        }
      ],
      "name": "OwnableInvalidOwner",
      "type": "error"
    },
    {
      "inputs": [
        {
          "internalType": "address",
          "name": "account",
          "type": "address"
        }
      ],
      "name": "OwnableUnauthorizedAccount",
      "type": "error"
    },
    {
      "inputs": [],
      "name": "ReentrancyGuardReentrantCall",
      "type": "error"
    },
    {
      "anonymous": false,
      "inputs": [
        {
          "indexed": false,
          "internalType": "uint8",
          "name": "matchId",
          "type": "uint8"
        },
        {
          "indexed": false,
          "internalType": "uint256",
          "name": "totalStakerCount",
          "type": "uint256"
        }
      ],
      "name": "MatchResultsProcessed",
      "type": "event"
    },
    {
      "anonymous": false,
      "inputs": [
        {
          "indexed": true,
          "internalType": "address",
          "name": "previousOwner",
          "type": "address"
        },
        {
          "indexed": true,
          "internalType": "address",
          "name": "newOwner",
          "type": "address"
        }
      ],
      "name": "OwnershipTransferred",
      "type": "event"
    },
    {
      "anonymous": false,
      "inputs": [
        {
          "indexed": false,
          "internalType": "uint8",
          "name": "playerId",
          "type": "uint8"
        },
        {
          "indexed": false,
          "internalType": "address",
          "name": "tokenAddr",
          "type": "address"
        }
      ],
      "name": "PlayerTokenRegistered",
      "type": "event"
    },
    {
      "anonymous": false,
      "inputs": [
        {
          "indexed": true,
          "internalType": "address",
          "name": "wallet",
          "type": "address"
        },
        {
          "indexed": false,
          "internalType": "uint8",
          "name": "matchId",
          "type": "uint8"
        },
        {
          "indexed": false,
          "internalType": "uint8",
          "name": "playerId",
          "type": "uint8"
        },
        {
          "indexed": false,
          "internalType": "uint256",
          "name": "amount",
          "type": "uint256"
        }
      ],
      "name": "Staked",
      "type": "event"
    },
    {
      "anonymous": false,
      "inputs": [
        {
          "indexed": true,
          "internalType": "address",
          "name": "wallet",
          "type": "address"
        },
        {
          "indexed": false,
          "internalType": "uint8",
          "name": "matchId",
          "type": "uint8"
        },
        {
          "indexed": false,
          "internalType": "uint8",
          "name": "playerId",
          "type": "uint8"
        },
        {
          "indexed": false,
          "internalType": "uint256",
          "name": "amount",
          "type": "uint256"
        }
      ],
      "name": "Unstaked",
      "type": "event"
    },
    {
      "inputs": [
        {
          "internalType": "address",
          "name": "playerTokenAddr",
          "type": "address"
        },
        {
          "internalType": "uint8",
          "name": "playerId_",
          "type": "uint8"
        },
        {
          "internalType": "uint8",
          "name": "matchId_",
          "type": "uint8"
        }
      ],
      "name": "claimAndUnstake",
      "outputs": [],
      "stateMutability": "nonpayable",
      "type": "function"
    },
    {
      "inputs": [
        {
          "internalType": "uint8",
          "name": "matchId_",
          "type": "uint8"
        }
      ],
      "name": "getMatchStakers",
      "outputs": [
        {
          "internalType": "address[]",
          "name": "",
          "type": "address[]"
        }
      ],
      "stateMutability": "view",
      "type": "function"
    },
    {
      "inputs": [
        {
          "internalType": "uint8",
          "name": "matchId_",
          "type": "uint8"
        },
        {
          "internalType": "uint8",
          "name": "playerId_",
          "type": "uint8"
        }
      ],
      "name": "getPlayerStakers",
      "outputs": [
        {
          "internalType": "address[]",
          "name": "",
          "type": "address[]"
        }
      ],
      "stateMutability": "view",
      "type": "function"
    },
    {
      "inputs": [
        {
          "internalType": "address",
          "name": "wallet",
          "type": "address"
        },
        {
          "internalType": "uint8",
          "name": "matchId_",
          "type": "uint8"
        },
        {
          "internalType": "uint8",
          "name": "playerId_",
          "type": "uint8"
        }
      ],
      "name": "getStake",
      "outputs": [
        {
          "components": [
            {
              "internalType": "uint256",
              "name": "amount",
              "type": "uint256"
            },
            {
              "internalType": "uint8",
              "name": "playerId",
              "type": "uint8"
            },
            {
              "internalType": "uint8",
              "name": "matchId",
              "type": "uint8"
            },
            {
              "internalType": "bool",
              "name": "claimed",
              "type": "bool"
            }
          ],
          "internalType": "struct StakingContract.Stake",
          "name": "",
          "type": "tuple"
        }
      ],
      "stateMutability": "view",
      "type": "function"
    },
    {
      "inputs": [
        {
          "internalType": "uint8",
          "name": "",
          "type": "uint8"
        },
        {
          "internalType": "address",
          "name": "",
          "type": "address"
        }
      ],
      "name": "isMatchStaker",
      "outputs": [
        {
          "internalType": "bool",
          "name": "",
          "type": "bool"
        }
      ],
      "stateMutability": "view",
      "type": "function"
    },
    {
      "inputs": [
        {
          "internalType": "uint8",
          "name": "",
          "type": "uint8"
        },
        {
          "internalType": "uint256",
          "name": "",
          "type": "uint256"
        }
      ],
      "name": "matchStakers",
      "outputs": [
        {
          "internalType": "address",
          "name": "",
          "type": "address"
        }
      ],
      "stateMutability": "view",
      "type": "function"
    },
    {
      "inputs": [
        {
          "internalType": "uint8",
          "name": "",
          "type": "uint8"
        }
      ],
      "name": "matches",
      "outputs": [
        {
          "internalType": "uint256",
          "name": "startTime",
          "type": "uint256"
        },
        {
          "internalType": "bool",
          "name": "resultsIn",
          "type": "bool"
        }
      ],
      "stateMutability": "view",
      "type": "function"
    },
    {
      "inputs": [],
      "name": "oracleAddress",
      "outputs": [
        {
          "internalType": "address",
          "name": "",
          "type": "address"
        }
      ],
      "stateMutability": "view",
      "type": "function"
    },
    {
      "inputs": [],
      "name": "owner",
      "outputs": [
        {
          "internalType": "address",
          "name": "",
          "type": "address"
        }
      ],
      "stateMutability": "view",
      "type": "function"
    },
    {
      "inputs": [
        {
          "internalType": "uint8",
          "name": "",
          "type": "uint8"
        },
        {
          "internalType": "uint8",
          "name": "",
          "type": "uint8"
        },
        {
          "internalType": "uint256",
          "name": "",
          "type": "uint256"
        }
      ],
      "name": "playerStakers",
      "outputs": [
        {
          "internalType": "address",
          "name": "",
          "type": "address"
        }
      ],
      "stateMutability": "view",
      "type": "function"
    },
    {
      "inputs": [
        {
          "internalType": "uint8",
          "name": "",
          "type": "uint8"
        }
      ],
      "name": "playerTokenAddresses",
      "outputs": [
        {
          "internalType": "address",
          "name": "",
          "type": "address"
        }
      ],
      "stateMutability": "view",
      "type": "function"
    },
    {
      "inputs": [],
      "name": "prizePool",
      "outputs": [
        {
          "internalType": "contract PrizePool",
          "name": "",
          "type": "address"
        }
      ],
      "stateMutability": "view",
      "type": "function"
    },
    {
      "inputs": [
        {
          "internalType": "uint8",
          "name": "matchId_",
          "type": "uint8"
        },
        {
          "internalType": "uint8[]",
          "name": "uniquePlayerIds",
          "type": "uint8[]"
        },
        {
          "internalType": "uint256[]",
          "name": "fpScores",
          "type": "uint256[]"
        },
        {
          "internalType": "uint8",
          "name": "seasonId",
          "type": "uint8"
        }
      ],
      "name": "processMatchRewards",
      "outputs": [],
      "stateMutability": "nonpayable",
      "type": "function"
    },
    {
      "inputs": [
        {
          "internalType": "uint8",
          "name": "playerId_",
          "type": "uint8"
        },
        {
          "internalType": "address",
          "name": "tokenAddr",
          "type": "address"
        }
      ],
      "name": "registerPlayerToken",
      "outputs": [],
      "stateMutability": "nonpayable",
      "type": "function"
    },
    {
      "inputs": [],
      "name": "renounceOwnership",
      "outputs": [],
      "stateMutability": "nonpayable",
      "type": "function"
    },
    {
      "inputs": [
        {
          "internalType": "uint8",
          "name": "matchId",
          "type": "uint8"
        },
        {
          "internalType": "uint256",
          "name": "startTime",
          "type": "uint256"
        }
      ],
      "name": "setMatch",
      "outputs": [],
      "stateMutability": "nonpayable",
      "type": "function"
    },
    {
      "inputs": [
        {
          "internalType": "address",
          "name": "o",
          "type": "address"
        }
      ],
      "name": "setOracle",
      "outputs": [],
      "stateMutability": "nonpayable",
      "type": "function"
    },
    {
      "inputs": [
        {
          "internalType": "address",
          "name": "playerTokenAddr",
          "type": "address"
        },
        {
          "internalType": "uint8",
          "name": "playerId_",
          "type": "uint8"
        },
        {
          "internalType": "uint8",
          "name": "matchId_",
          "type": "uint8"
        },
        {
          "internalType": "uint256",
          "name": "amount",
          "type": "uint256"
        }
      ],
      "name": "stakeForMatch",
      "outputs": [],
      "stateMutability": "nonpayable",
      "type": "function"
    },
    {
      "inputs": [
        {
          "internalType": "address",
          "name": "",
          "type": "address"
        },
        {
          "internalType": "uint8",
          "name": "",
          "type": "uint8"
        },
        {
          "internalType": "uint8",
          "name": "",
          "type": "uint8"
        }
      ],
      "name": "stakes",
      "outputs": [
        {
          "internalType": "uint256",
          "name": "amount",
          "type": "uint256"
        },
        {
          "internalType": "uint8",
          "name": "playerId",
          "type": "uint8"
        },
        {
          "internalType": "uint8",
          "name": "matchId",
          "type": "uint8"
        },
        {
          "internalType": "bool",
          "name": "claimed",
          "type": "bool"
        }
      ],
      "stateMutability": "view",
      "type": "function"
    },
    {
      "inputs": [
        {
          "internalType": "uint8",
          "name": "",
          "type": "uint8"
        },
        {
          "internalType": "uint8",
          "name": "",
          "type": "uint8"
        }
      ],
      "name": "totalStaked",
      "outputs": [
        {
          "internalType": "uint256",
          "name": "",
          "type": "uint256"
        }
      ],
      "stateMutability": "view",
      "type": "function"
    },
    {
      "inputs": [
        {
          "internalType": "address",
          "name": "newOwner",
          "type": "address"
        }
      ],
      "name": "transferOwnership",
      "outputs": [],
      "stateMutability": "nonpayable",
      "type": "function"
    }
  ],
  "bytecode": "0x60803461013457601f6200188838819003918201601f19168301916001600160401b038311848410176101385780849260409485528339810103126101345760206100498261014c565b916001600160a01b0391829161005f910161014c565b1690811561011c575f549260018060a01b03199280848616175f558260405195167f8be0079c531659141344cd1fd0a4f28419497f9722a3daafe3b4186f6b6457e05f80a360017f9b779b17422d0df92223018b32b4d1fa46e071723d6817e2486d003becc55f0055169182156100e9575060015416176001556040516117279081620001618239f35b62461bcd60e51b815260206004820152600e60248201526d16995c9bc81c1c9a5e99541bdbdb60921b6044820152606490fd5b604051631e4fbdf760e01b81525f6004820152602490fd5b5f80fd5b634e487b7160e01b5f52604160045260245ffd5b51906001600160a01b03821682036101345756fe60a06040526004361015610011575f80fd5b5f803560e01c8063103bd4ce1461137657806322a4711914610e7d57806336e09d0414610da65780633c4f393714610d4e578063442c52b914610d0d5780635aabbedd14610c80578063715018a614610c27578063719ce73e14610bfe57806374f48b4314610ba35780637adbf97314610b575780638da5cb5b14610b30578063906a0b3b14610a5f5780639b27d86414610a0c5780639bfad67d1461097a578063a7419fc814610519578063a89ae4ba146104f0578063ae0ad8e714610298578063c48ec2291461020e578063d7851b48146101c6578063da69b1641461018b5763f2fde38b14610101575f80fd5b346101885760203660031901126101885761011a61144b565b610122611684565b6001600160a01b0390811690811561016f575f54826001600160601b0360a01b8216175f55167f8be0079c531659141344cd1fd0a4f28419497f9722a3daafe3b4186f6b6457e05f80a380f35b604051631e4fbdf760e01b815260048101849052602490fd5b80fd5b50346101885760203660031901126101885760209060ff6101aa611405565b16815260088252604060018060a01b0391205416604051908152f35b50346101885760403660031901126101885760ff60406101e4611405565b92826101ee611415565b9416815260046020522091165f52602052602060405f2054604051908152f35b50346101885760603660031901126101885761022861144b565b9060ff6040610235611415565b9261023e611425565b9460018060a01b0316815260036020522091165f5260205260ff60405f2091165f52602052608060405f2060ff600182549201546040519283528181166020840152818160081c16604084015260101c1615156060820152f35b5034610188576060366003190112610188576102b261144b565b6102ba611415565b906102c3611425565b916102cc6116af565b60ff83168085526020906009825260ff600160408820015416156104b6573386526003825260408620905f52815260405f2060ff83165f52815260405f2092835493841561048057600101805460ff8160101c166104495762ff0000191662010000179055670de0b6b3a76400008402670de0b6b3a763ffff19858204016104355760405163a9059cbb60e01b81523360048201526024810191909152939291908190859060449082908a906001600160a01b03165af193841561042a577fdc598994ae0fd5573de817b59e3a805c7145515847f527d125c0ddc939dc9050946103fc575b50506040805160ff9586168152949091166020850152830152339180606081015b0390a260017f9b779b17422d0df92223018b32b4d1fa46e071723d6817e2486d003becc55f005580f35b8161041b92903d10610423575b6104138183611579565b81019061162c565b505f806103b1565b503d610409565b6040513d88823e3d90fd5b634e487b7160e01b87526011600452602487fd5b60405162461bcd60e51b815260048101859052600f60248201526e105b1c9958591e4818db185a5b5959608a1b6044820152606490fd5b60405162461bcd60e51b815260048101849052600e60248201526d139bdd1a1a5b99c81cdd185ad95960921b6044820152606490fd5b60405162461bcd60e51b815260048101839052601260248201527114995cdd5b1d1cc81b9bdd081a5b881e595d60721b6044820152606490fd5b50346101885780600319360112610188576002546040516001600160a01b039091168152602090f35b50346101885760803660031901126101885761053361144b565b9061053c611415565b91610545611425565b906064938435916105546116af565b600183106109485760ff84168086526020906009825260408720541561090d578087526009825260408720544210156108d1578087526009825260ff60016040892001541661089b573387526003825260408720815f52825260405f209260ff851693845f52835260405f2054610859576040516370a0823160e01b81523360048201526001600160a01b0391909116908381602481855afa90811561084e57899161081d575b50670de0b6b3a7640000908188029188830414881517156108095781116107cf57908899849260409a999a51998a9384926323b872dd60e01b845233600485015230602485015260448401525af19586156107c4577f0a5758d1052c91bae9d4e0904a90b89aed22aad79e2390290f717b6e9c2531bb966107a7575b506040516106848161155d565b858152828101908482528960ff600160408401938685526040606082019480865233815260038a5220875f52885260405f20895f52885260405f2090518155019351169162ff000061ff008554925160081b169251151560101b169262ff000019169062ffffff191617171790558088526004825260408820835f52825260405f20610711868254611550565b90558088526006825260408820335f52825260ff60405f2054161561076f575b87526007815260408720915f525261074c3360405f20611644565b6040805160ff9586168152949091166020850152830152339180606081016103d2565b808852600582526107833360408a20611644565b8088526006825260408820335f52825260405f20600160ff19825416179055610731565b6107bd90833d8511610423576104138183611579565b505f610677565b6040513d8a823e3d90fd5b60405162461bcd60e51b8152600481018590526013602482015272496e73756666696369656e7420746f6b656e7360681b60448201528a90fd5b634e487b7160e01b8a52601160045260248afd5b90508381813d8311610847575b6108348183611579565b8101031261084357515f6105fb565b8880fd5b503d61082a565b6040513d8b823e3d90fd5b88836040519062461bcd60e51b825280600483015260248201527f416c7265616479207374616b6564207468697320706c617965722f6d617463686044820152fd5b60405162461bcd60e51b815260048101839052600f60248201526e13585d18da0818dbdb5c1b195d1959608a1b60448201528890fd5b60405162461bcd60e51b815260048101839052601560248201527413585d18da08185b1c9958591e481cdd185c9d1959605a1b60448201528890fd5b60405162461bcd60e51b815260048101839052601460248201527313585d18da081b9bdd0818dbdb999a59dd5c995960621b60448201528890fd5b60405162461bcd60e51b815260206004820152600b60248201526a26b4b71018903a37b5b2b760a91b60448201528690fd5b503461018857602080600319360112610a085760ff610997611405565b168252600581526040822091604051809384918482549182815201918452848420935b858282106109e9575050506109d192500383611579565b6109e56040519282849384528301906114bb565b0390f35b85546001600160a01b03168452600195860195889550930192016109ba565b5080fd5b5034610188576040366003190112610188576040610a28611405565b9160ff610a33611435565b931681526006602052209060018060a01b03165f52602052602060ff60405f2054166040519015158152f35b503461018857606036600319011261018857608090610a7c61144b565b610a84611415565b916040610a8f611425565b91815193610a9c8561155d565b81855281606060209682888201528286820152015260018060a01b03168152600384522060ff8094165f5282528260405f2091165f52815260405f2091604051610ae58161155d565b60018454948583520154928281830181861681528160606040860195828960081c168752019660101c1615158652604051968752511690850152511660408301525115156060820152f35b5034610188578060031936011261018857546040516001600160a01b039091168152602090f35b503461018857602036600319011261018857610b7161144b565b610b79611684565b6001600160a01b0316610b8d8115156114f7565b6001600160601b0360a01b600254161760025580f35b503461018857604036600319011261018857610bbd611405565b60ff16815260056020526040812080546024359290831015610188576020610be58484611492565b905460405160039290921b1c6001600160a01b03168152f35b50346101885780600319360112610188576001546040516001600160a01b039091168152602090f35b5034610188578060031936011261018857610c40611684565b5f80546001600160a01b0319811682556001600160a01b03167f8be0079c531659141344cd1fd0a4f28419497f9722a3daafe3b4186f6b6457e08280a380f35b503461018857604036600319011261018857610c9a611405565b60ff610ca4611415565b911682526020906007825260ff6040842091165f52815260405f2091604051809384918482549182815201918452848420935b85828210610cee575050506109d192500383611579565b85546001600160a01b0316845260019586019588955093019201610cd7565b5034610188576020366003190112610188576040809160ff610d2d611405565b16815260096020522060ff6001825492015416825191825215156020820152f35b503461018857606036600319011261018857610d68611405565b90610d71611415565b60ff60443593168252600760205260ff6040832091165f5260205260405f20908154831015610188576020610be58484611492565b503461018857604036600319011261018857610dc0611405565b602435610dcb611684565b42811115610e3857604051604081019181831067ffffffffffffffff841117610e2457600192604052815260ff602082019385855216845260096020526040842090518155019051151560ff8019835416911617905580f35b634e487b7160e01b5f52604160045260245ffd5b60405162461bcd60e51b815260206004820152601c60248201527f53746172742074696d65206d75737420626520696e20667574757265000000006044820152606490fd5b503461115657608036600319011261115657610e97611405565b60805260243567ffffffffffffffff811161115657610eba903690600401611461565b9060443567ffffffffffffffff811161115657610edb903690600401611461565b916064359260ff84168403611156576002546001600160a01b031633036113445760ff608051165f52600960205260ff600160405f2001541661130b578085036112d5575f945f5b8181106112955750610f348661159b565b91610f426040519384611579565b868352610f4e8761159b565b601f1995908601366020860137610f64886115b3565b95610f6e8961159b565b90610f7c6040519283611579565b898252610f888a61159b565b01366020830137610f98846115b3565b945f805b8681106111735750506001546001600160a01b031697883b1561115657610ff56110079260ff6040519c8d63253863b360e01b90521660048d015260ff6080511660248d015261010060448d01526101048c01906114bb565b8a81036003190160648c0152906115f9565b6003198982030160848a0152602080835192838152019201905f5b81811061115a575050508781036003190160a48901528281526001600160fb1b0383116111565790604091889695949360051b80926020830137018260208201601c8884030160c4890152520192905f905b808210611129575050505f8361109982969482946003198483030160e48501526115f9565b03925af1801561111e576110ff575b5060407f3625b1fc292dc84e44d038116978cedaef29eb89d4e54f3657ea966afcc72df99160ff6080511684526009602052600182852001600160ff1982541617905581519060ff6080511682526020820152a180f35b90915067ffffffffffffffff8111610e245760409081525f91906110a8565b6040513d5f823e3d90fd5b9180955093909293359060ff82168092036111565760208160019382935201950192018694939291611074565b5f80fd5b825160ff16845260209384019390920191600101611022565b61118661118182898c611532565b611542565b60ff608051165f52600460205260405f2060ff82165f5260205260405f20546111af838b6115e5565b5260ff608051165f52600760205260405f2060ff82165f5260205260405f205f918154905b8184106111e75750505050600101610f9c565b909192946111f58685611492565b9054600391821b1c6001600160a01b0316611210838a6115e5565b5261121b8786611492565b60018060a01b03915490831b1c165f5260205260405f2060ff608051165f5260205260405f2060ff83165f526020528d61125a8260405f2054926115e5565b5260ff8216611269828a6115e5565b525f19811461128157600180910195019291906111d4565b634e487b7160e01b5f52601160045260245ffd5b956112ce60019160ff608051165f52600760205260405f2060ff6112bd6111818c888b611532565b165f5260205260405f205490611550565b9601610f23565b60405162461bcd60e51b815260206004820152600e60248201526d082e4e4c2f240dad2e6dac2e8c6d60931b6044820152606490fd5b60405162461bcd60e51b8152602060048201526011602482015270105b1c9958591e481c1c9bd8d95cdcd959607a1b6044820152606490fd5b60405162461bcd60e51b815260206004820152600a6024820152694e6f74206f7261636c6560b01b6044820152606490fd5b34611156576040366003190112611156577ffa99a5effaf3229b7b1361d5655d603d72e68a106dc3363a7ba0db2b3b1c202860406113b2611405565b60ff6113bc611435565b6113c4611684565b6001600160a01b0316916113d98315156114f7565b1690815f526008602052825f20816001600160601b0360a01b82541617905582519182526020820152a1005b6004359060ff8216820361115657565b6024359060ff8216820361115657565b6044359060ff8216820361115657565b602435906001600160a01b038216820361115657565b600435906001600160a01b038216820361115657565b9181601f840112156111565782359167ffffffffffffffff8311611156576020808501948460051b01011161115657565b80548210156114a7575f5260205f2001905f90565b634e487b7160e01b5f52603260045260245ffd5b9081518082526020808093019301915f5b8281106114da575050505090565b83516001600160a01b0316855293810193928101926001016114cc565b156114fe57565b60405162461bcd60e51b815260206004820152600c60248201526b5a65726f206164647265737360a01b6044820152606490fd5b91908110156114a75760051b0190565b3560ff811681036111565790565b9190820180921161128157565b6080810190811067ffffffffffffffff821117610e2457604052565b90601f8019910116810190811067ffffffffffffffff821117610e2457604052565b67ffffffffffffffff8111610e245760051b60200190565b906115bd8261159b565b6115ca6040519182611579565b82815280926115db601f199161159b565b0190602036910137565b80518210156114a75760209160051b010190565b9081518082526020808093019301915f5b828110611618575050505090565b83518552938101939281019260010161160a565b90816020910312611156575180151581036111565790565b805468010000000000000000811015610e245761166691600182018155611492565b60018060a09493941b038084549260031b9316831b921b1916179055565b5f546001600160a01b0316330361169757565b60405163118cdaa760e01b8152336004820152602490fd5b7f9b779b17422d0df92223018b32b4d1fa46e071723d6817e2486d003becc55f0060028154146116df5760029055565b604051633ee5aeb560e01b8152600490fdfea2646970667358221220484051b6dc632530e83b67853fe78095c8104a21c20a95194d12c2c78046c56b64736f6c63430008180033",
  "linkReferences": {},
  "deployedLinkReferences": {}
}