{
  "_format": "hh-sol-artifact-1",
  "contractName": "MarketContract",
  "sourceName": "contracts/market/MarketContract.sol",
  "abi": [
    {
      "inputs": [
        {
          "internalType": "address",
          "name": "prizePool_",
          "type": "address"
        },
        {
          "internalType": "address",
          "name": "initialOwner_",
          "type": "address"
        }
      ],
      "stateMutability": "nonpayable",
      "type": "constructor"
    },
    {
      "inputs": [
        {
          "internalType": "address",
          "name": "owner",
          "type": "address"
        }
      ],
      "name": "OwnableInvalidOwner",
      "type": "error"
    },
    {
      "inputs": [
        {
          "internalType": "address",
          "name": "account",
          "type": "address"
        }
      ],
      "name": "OwnableUnauthorizedAccount",
      "type": "error"
    },
    {
      "inputs": [],
      "name": "ReentrancyGuardReentrantCall",
      "type": "error"
    },
    {
      "anonymous": false,
      "inputs": [
        {
          "indexed": true,
          "internalType": "address",
          "name": "previousOwner",
          "type": "address"
        },
        {
          "indexed": true,
          "internalType": "address",
          "name": "newOwner",
          "type": "address"
        }
      ],
      "name": "OwnershipTransferred",
      "type": "event"
    },
    {
      "anonymous": false,
      "inputs": [
        {
          "indexed": true,
          "internalType": "address",
          "name": "playerToken",
          "type": "address"
        },
        {
          "indexed": false,
          "internalType": "uint8",
          "name": "playerId",
          "type": "uint8"
        },
        {
          "indexed": false,
          "internalType": "uint8",
          "name": "tier",
          "type": "uint8"
        }
      ],
      "name": "PlayerRegistered",
      "type": "event"
    },
    {
      "anonymous": false,
      "inputs": [
        {
          "indexed": true,
          "internalType": "address",
          "name": "buyer",
          "type": "address"
        },
        {
          "indexed": true,
          "internalType": "address",
          "name": "playerToken",
          "type": "address"
        },
        {
          "indexed": false,
          "internalType": "uint256",
          "name": "amount",
          "type": "uint256"
        },
        {
          "indexed": false,
          "internalType": "uint256",
          "name": "cost",
          "type": "uint256"
        },
        {
          "indexed": false,
          "internalType": "uint256",
          "name": "newSupply",
          "type": "uint256"
        }
      ],
      "name": "TokenBought",
      "type": "event"
    },
    {
      "anonymous": false,
      "inputs": [
        {
          "indexed": true,
          "internalType": "address",
          "name": "seller",
          "type": "address"
        },
        {
          "indexed": true,
          "internalType": "address",
          "name": "playerToken",
          "type": "address"
        },
        {
          "indexed": false,
          "internalType": "uint256",
          "name": "amount",
          "type": "uint256"
        },
        {
          "indexed": false,
          "internalType": "uint256",
          "name": "refund",
          "type": "uint256"
        },
        {
          "indexed": false,
          "internalType": "uint256",
          "name": "newSupply",
          "type": "uint256"
        }
      ],
      "name": "TokenSold",
      "type": "event"
    },
    {
      "inputs": [
        {
          "internalType": "uint256",
          "name": "",
          "type": "uint256"
        }
      ],
      "name": "allPlayerTokens",
      "outputs": [
        {
          "internalType": "address",
          "name": "",
          "type": "address"
        }
      ],
      "stateMutability": "view",
      "type": "function"
    },
    {
      "inputs": [
        {
          "internalType": "address",
          "name": "playerToken",
          "type": "address"
        },
        {
          "internalType": "uint256",
          "name": "amount",
          "type": "uint256"
        }
      ],
      "name": "buyTokens",
      "outputs": [],
      "stateMutability": "payable",
      "type": "function"
    },
    {
      "inputs": [],
      "name": "factory",
      "outputs": [
        {
          "internalType": "address",
          "name": "",
          "type": "address"
        }
      ],
      "stateMutability": "view",
      "type": "function"
    },
    {
      "inputs": [],
      "name": "getAllPlayerTokens",
      "outputs": [
        {
          "internalType": "address[]",
          "name": "",
          "type": "address[]"
        }
      ],
      "stateMutability": "view",
      "type": "function"
    },
    {
      "inputs": [
        {
          "internalType": "address",
          "name": "playerToken",
          "type": "address"
        },
        {
          "internalType": "uint256",
          "name": "amount",
          "type": "uint256"
        }
      ],
      "name": "getBuyPrice",
      "outputs": [
        {
          "internalType": "uint256",
          "name": "",
          "type": "uint256"
        }
      ],
      "stateMutability": "view",
      "type": "function"
    },
    {
      "inputs": [
        {
          "internalType": "address",
          "name": "wallet",
          "type": "address"
        },
        {
          "internalType": "address",
          "name": "playerToken",
          "type": "address"
        }
      ],
      "name": "getHoldings",
      "outputs": [
        {
          "internalType": "uint256",
          "name": "",
          "type": "uint256"
        }
      ],
      "stateMutability": "view",
      "type": "function"
    },
    {
      "inputs": [
        {
          "internalType": "address",
          "name": "playerToken",
          "type": "address"
        },
        {
          "internalType": "uint256",
          "name": "amount",
          "type": "uint256"
        }
      ],
      "name": "getSellPrice",
      "outputs": [
        {
          "internalType": "uint256",
          "name": "",
          "type": "uint256"
        }
      ],
      "stateMutability": "view",
      "type": "function"
    },
    {
      "inputs": [
        {
          "internalType": "address",
          "name": "playerToken",
          "type": "address"
        }
      ],
      "name": "getTokensRemaining",
      "outputs": [
        {
          "internalType": "uint256",
          "name": "",
          "type": "uint256"
        }
      ],
      "stateMutability": "view",
      "type": "function"
    },
    {
      "inputs": [
        {
          "internalType": "address",
          "name": "",
          "type": "address"
        },
        {
          "internalType": "address",
          "name": "",
          "type": "address"
        }
      ],
      "name": "holdings",
      "outputs": [
        {
          "internalType": "uint256",
          "name": "",
          "type": "uint256"
        }
      ],
      "stateMutability": "view",
      "type": "function"
    },
    {
      "inputs": [
        {
          "internalType": "address",
          "name": "",
          "type": "address"
        }
      ],
      "name": "isRegisteredToken",
      "outputs": [
        {
          "internalType": "bool",
          "name": "",
          "type": "bool"
        }
      ],
      "stateMutability": "view",
      "type": "function"
    },
    {
      "inputs": [],
      "name": "owner",
      "outputs": [
        {
          "internalType": "address",
          "name": "",
          "type": "address"
        }
      ],
      "stateMutability": "view",
      "type": "function"
    },
    {
      "inputs": [],
      "name": "prizePool",
      "outputs": [
        {
          "internalType": "contract PrizePool",
          "name": "",
          "type": "address"
        }
      ],
      "stateMutability": "view",
      "type": "function"
    },
    {
      "inputs": [
        {
          "internalType": "address",
          "name": "tokenAddr",
          "type": "address"
        },
        {
          "internalType": "uint8",
          "name": "playerId_",
          "type": "uint8"
        },
        {
          "internalType": "uint8",
          "name": "tier_",
          "type": "uint8"
        }
      ],
      "name": "registerPlayerToken",
      "outputs": [],
      "stateMutability": "nonpayable",
      "type": "function"
    },
    {
      "inputs": [],
      "name": "renounceOwnership",
      "outputs": [],
      "stateMutability": "nonpayable",
      "type": "function"
    },
    {
      "inputs": [
        {
          "internalType": "address",
          "name": "playerToken",
          "type": "address"
        },
        {
          "internalType": "uint256",
          "name": "amount",
          "type": "uint256"
        }
      ],
      "name": "sellTokens",
      "outputs": [],
      "stateMutability": "nonpayable",
      "type": "function"
    },
    {
      "inputs": [
        {
          "internalType": "address",
          "name": "factory_",
          "type": "address"
        }
      ],
      "name": "setFactory",
      "outputs": [],
      "stateMutability": "nonpayable",
      "type": "function"
    },
    {
      "inputs": [
        {
          "internalType": "address",
          "name": "newPrizePool",
          "type": "address"
        }
      ],
      "name": "setMarket",
      "outputs": [],
      "stateMutability": "nonpayable",
      "type": "function"
    },
    {
      "inputs": [
        {
          "internalType": "address",
          "name": "",
          "type": "address"
        }
      ],
      "name": "tokenPlayerId",
      "outputs": [
        {
          "internalType": "uint8",
          "name": "",
          "type": "uint8"
        }
      ],
      "stateMutability": "view",
      "type": "function"
    },
    {
      "inputs": [
        {
          "internalType": "address",
          "name": "",
          "type": "address"
        }
      ],
      "name": "tokenTier",
      "outputs": [
        {
          "internalType": "uint8",
          "name": "",
          "type": "uint8"
        }
      ],
      "stateMutability": "view",
      "type": "function"
    },
    {
      "inputs": [
        {
          "internalType": "address",
          "name": "",
          "type": "address"
        }
      ],
      "name": "tokensSold",
      "outputs": [
        {
          "internalType": "uint256",
          "name": "",
          "type": "uint256"
        }
      ],
      "stateMutability": "view",
      "type": "function"
    },
    {
      "inputs": [
        {
          "internalType": "address",
          "name": "newOwner",
          "type": "address"
        }
      ],
      "name": "transferOwnership",
      "outputs": [],
      "stateMutability": "nonpayable",
      "type": "function"
    },
    {
      "stateMutability": "payable",
      "type": "receive"
    }
  ],
  "bytecode": "0x60803461013257601f61148938819003918201601f19168301916001600160401b038311848410176101365780849260409485528339810103126101325760206100488261014a565b916001600160a01b0391829161005e910161014a565b1690811561011a575f549260018060a01b03199280848616175f558260405195167f8be0079c531659141344cd1fd0a4f28419497f9722a3daafe3b4186f6b6457e05f80a360017f9b779b17422d0df92223018b32b4d1fa46e071723d6817e2486d003becc55f0055169182156100e75750600154161760015560405161132a908161015f8239f35b62461bcd60e51b815260206004820152600e60248201526d16995c9bc81c1c9a5e99541bdbdb60921b6044820152606490fd5b604051631e4fbdf760e01b81525f6004820152602490fd5b5f80fd5b634e487b7160e01b5f52604160045260245ffd5b51906001600160a01b03821682036101325756fe60806040818152600480361015610020575b505050361561001e575f80fd5b005b5f925f3560e01c908163015a379214610e6b575080630752881a14610a8c57806320cdb2ae14610a33578063391cdbb5146109f75780634036ff2e146109ac5780634635256e1461096457806352ebaf62146109285780635403715e146108e85780635b8a1cdd1461073f5780635bb47808146106ff578063604352e0146106ae5780636dcea85f14610662578063715018a614610606578063719ce73e146105dd5780637639a2301461059f5780638da5cb5b146105775780639ae7178114610547578063c45a01551461051e578063c464fe65146101d6578063e36444031461019a5763f2fde38b03610011573461019657602036600319011261019657610128610f2a565b90610131611270565b6001600160a01b039182169283156101805750505f54826001600160601b0360a01b8216175f55167f8be0079c531659141344cd1fd0a4f28419497f9722a3daafe3b4186f6b6457e05f80a380f35b51631e4fbdf760e01b8152908101849052602490fd5b8280fd5b5050346101d25760203660031901126101d25760209181906001600160a01b036101c2610f2a565b1681526003845220549051908152f35b5080fd5b5090346101965780600319360112610196576101f0610f2a565b6024918235926101fe6111cd565b60018060a01b03809316948587526020936006855261022260ff858a205416610fe9565b61022f6001871015611025565b338852818552838820875f528552670de0b6b3a7640000928684865f205404106104e5578789526003865286858a2054106104ad578789526007865261028e878a610288828960ff81852054169360038d5220546110c7565b9061129b565b918260011b8381046002148415171561049b5760646102af910480946110c7565b9480890290898204148915171561049b57908a9493929185898c60648b51809481936323b872dd60e01b8352338c840152308a8401528760448401525af1801561049157610464575b508a86526003895287862061030e8b82546110c7565b90553386528489528786208b5f52895261032c885f209182546110c7565b90556001541690865163bcb3962160e01b815288818681865afa90811561045a57869161042d575b50823b1561041f57859360ff9389519687958694630cd62bdd60e41b865216908401525af180156104235761040b575b507f9387a595ac4be9038bbb9751abad8baa3dcf219dd9e19abb81552bd521fe3546936103c282808060039587335af16103bc6110d4565b50611113565b8688525281862054915193845260208401526040830152339180606081015b0390a360017f9b779b17422d0df92223018b32b4d1fa46e071723d6817e2486d003becc55f005580f35b61041490610f9f565b61041f57855f610384565b8580fd5b84513d84823e3d90fd5b61044d9150893d8b11610453575b6104458183610fc7565b810190611096565b5f610354565b503d61043b565b88513d88823e3d90fd5b610483908a3d8c1161048a575b61047b8183610fc7565b8101906110af565b505f6102f8565b503d610471565b89513d89823e3d90fd5b634e487b7160e01b8b5260118552828bfd5b8260146064928888519362461bcd60e51b8552840152820152732ab73232b9333637bb90383937ba32b1ba34b7b760611b6044820152fd5b8260156064928888519362461bcd60e51b855284015282015274496e73756666696369656e7420686f6c64696e677360581b6044820152fd5b5050346101d257816003193601126101d25760025490516001600160a01b039091168152602090f35b5050346101d257806003193601126101d257602090610570610567610f2a565b6024359061118a565b9051908152f35b5050346101d257816003193601126101d257905490516001600160a01b039091168152602090f35b5050346101d25760203660031901126101d25760209160ff9082906001600160a01b036105ca610f2a565b1681526006855220541690519015158152f35b5050346101d257816003193601126101d25760015490516001600160a01b039091168152602090f35b833461065f578060031936011261065f5761061f611270565b5f80546001600160a01b0319811682556001600160a01b03167f8be0079c531659141344cd1fd0a4f28419497f9722a3daafe3b4186f6b6457e08280a380f35b80fd5b833461065f57602036600319011261065f5761067c610f2a565b610684611270565b6001600160a01b031661069881151561114f565b6001600160601b0360a01b600154161760015580f35b5034610196578160031936011261019657602092826106cb610f2a565b916106d4610f40565b9360018060a01b03809416825286522091165f528252670de0b6b3a7640000815f2054049051908152f35b833461065f57602036600319011261065f57610719610f2a565b610721611270565b60018060a01b03166001600160601b0360a01b600254161760025580f35b509190346101d25760603660031901126101d25761075b610f2a565b9060243560ff81168091036108e45760443560ff81168091036108e45784546001600160a01b0394908516331480156108d7575b156108a3578416936107a285151561114f565b8486526020906006825260ff858820541661086b57858752600682528487209060ff199160018382541617905560055468010000000000000000811015610858577fb40e46bfddf8f95fd41d1f8398e5ddecd924e4bf9041c00251d40ecb8c7fc83e979899508060016108189201600555610f56565b819291549060031b918a831b921b19161790558688526007825284882083828254161790556008825283858920918254161790558351928352820152a280f35b634e487b7160e01b895260418a52602489fd5b845162461bcd60e51b81528089018390526012602482015271105b1c9958591e481c9959da5cdd195c995960721b6044820152606490fd5b835162461bcd60e51b8152602081890152600e60248201526d139bdd08185d5d1a1bdc9a5e995960921b6044820152606490fd5b508460025416331461078f565b5f80fd5b503461019657602036600319011261019657359160055483101561065f5750610912602092610f56565b905491519160018060a01b039160031b1c168152f35b5050346101d25760203660031901126101d25760209160ff9082906001600160a01b03610953610f2a565b168152600885522054169051908152f35b5050346101d257806003193601126101d257602091610570906001600160a01b0361098d610f2a565b1681526007845260ff838220541660038552836024359220549061120f565b5034610196578160031936011261019657602092826109c9610f2a565b916109d2610f40565b6001600160a01b0393841682529386522091165f908152908352819020549051908152f35b5050346101d25760203660031901126101d25760209160ff9082906001600160a01b03610a22610f2a565b168152600785522054169051908152f35b509190346101d25760203660031901126101d2576001600160a01b03610a57610f2a565b1682526003602052808220546064039160648311610a79576020838351908152f35b634e487b7160e01b815260118452602490fd5b50816003193601126108e457610aa0610f2a565b90602492833592610aaf6111cd565b60018060a01b0380911694855f5260209360068552610ad360ff855f205416610fe9565b600186101580610e60575b610ae790611025565b865f526003855260649283610aff88875f2054611062565b11610e2f573415610e0057335f52818652845f20885f528652670de0b6b3a764000090600a610b338984895f205404611062565b11610dbf57885f5260078752610b588860ff885f20541660038a52885f20549061120f565b94853410610d8957895f5260038852865f20610b758a8254611062565b9055828902928984041489151715610d7757335f52838852865f208a5f528852865f20610ba3848254611062565b90558560011b9186830460021487151715610d65576001541687519163bcb3962160e01b835289838781855afa928315610d5b575f93610d3c575b50813b156108e4575f9260ff9288928b519687958694630cd62bdd60e41b8652168a85015204905af18015610d3257610d1b575b509088929185519063a9059cbb60e01b82523383830152838201528681604481878d5af18015610d1157610cf4575b50873b1561019657829085519283916304d30abf60e31b8352339083015281838b5af1801561042357610ce0575b505060037f8692cf5ba66abd64f88cdc1ffa0ee9d9c21ee2d999322a20445ae32393394e3e93823411610cbf578688525281862054915193845260208401526040830152339180606081016103e1565b610cdb88808080610cd088346110c7565b335af16103bc6110d4565b6103c2565b610ce990610f9f565b61041f57855f610c6f565b610d0a90873d891161048a5761047b8183610fc7565b505f610c41565b86513d86823e3d90fd5b610d289193929950610f9f565b5f9790915f610c12565b86513d5f823e3d90fd5b610d549193508a3d8c11610453576104458183610fc7565b915f610bde565b89513d5f823e3d90fd5b85601186634e487b7160e01b5f52525ffd5b84601185634e487b7160e01b5f52525ffd5b865162461bcd60e51b815280850189905260148187015273125b9cdd59999a58da595b9d0815d0c81cd95b9d60621b6044820152fd5b855162461bcd60e51b8152808401889052601b818601527f4578636565647320313020746f6b656e2077616c6c657420636170000000000060448201528590fd5b509293600c9294519362461bcd60e51b85528401528201526b4d7573742073656e6420574360a01b6044820152fd5b509293600e9294519362461bcd60e51b85528401528201526d4578636565647320737570706c7960901b6044820152fd5b506064861115610ade565b8390346108e4575f3660031901126108e457906005548083526020808401809260055f527f036b6384b5eca791c62761152d0c79bb0604c104a5fb6f4eb0703f3154bb3db0905f5b818110610f0d5750505084610ec9910385610fc7565b825181815293518185018190528493840192915f5b828110610eed57505050500390f35b83516001600160a01b031685528695509381019392810192600101610ede565b82546001600160a01b031684529284019260019283019201610eb3565b600435906001600160a01b03821682036108e457565b602435906001600160a01b03821682036108e457565b600554811015610f8b5760055f527f036b6384b5eca791c62761152d0c79bb0604c104a5fb6f4eb0703f3154bb3db001905f90565b634e487b7160e01b5f52603260045260245ffd5b67ffffffffffffffff8111610fb357604052565b634e487b7160e01b5f52604160045260245ffd5b90601f8019910116810190811067ffffffffffffffff821117610fb357604052565b15610ff057565b60405162461bcd60e51b815260206004820152600d60248201526c2ab735b737bbb7103a37b5b2b760991b6044820152606490fd5b1561102c57565b60405162461bcd60e51b815260206004820152600e60248201526d125b9d985b1a5908185b5bdd5b9d60921b6044820152606490fd5b9190820180921161106f57565b634e487b7160e01b5f52601160045260245ffd5b8181029291811591840414171561106f57565b908160209103126108e4575160ff811681036108e45790565b908160209103126108e4575180151581036108e45790565b9190820391821161106f57565b3d1561110e573d9067ffffffffffffffff8211610fb35760405191611103601f8201601f191660200184610fc7565b82523d5f602084013e565b606090565b1561111a57565b60405162461bcd60e51b815260206004820152600d60248201526c1499599d5b990819985a5b1959609a1b6044820152606490fd5b1561115657565b60405162461bcd60e51b815260206004820152600c60248201526b5a65726f206164647265737360a01b6044820152606490fd5b6001600160a01b03165f90815260036020526040902054908082106111c7576111c49160076020526102888260ff60405f205416926110c7565b90565b50505f90565b7f9b779b17422d0df92223018b32b4d1fa46e071723d6817e2486d003becc55f0060028154146111fd5760029055565b604051633ee5aeb560e01b8152600490fd5b92915f935f925b8284106112235750505050565b9091929461126660019161126061123a8986611062565b6107d0611259611249896112c0565b926112548185611083565b611083565b0490611062565b90611062565b9501929190611216565b5f546001600160a01b0316330361128357565b60405163118cdaa760e01b8152336004820152602490fd5b906112a6929161120f565b605f810290808204605f149015171561106f576064900490565b60ff1680156112e7576001146112db5766b1a2bc2ec5000090565b67016345785d8a000090565b50670429d069189e00009056fea2646970667358221220fac29f0e42309d0e194c1d1a2ca7da0fefa103a11905133f19fe9ba2df388c2f64736f6c63430008180033",
  "linkReferences": {},
  "deployedLinkReferences": {}
}